{
  "contractName": "CREDITS",
  "abi": [
    {
      "constant": true,
      "inputs": [],
      "name": "name",
      "outputs": [
        {
          "name": "",
          "type": "string"
        }
      ],
      "payable": false,
      "stateMutability": "view",
      "type": "function"
    },
    {
      "constant": true,
      "inputs": [
        {
          "name": "",
          "type": "uint256"
        }
      ],
      "name": "ArrAccountIsFrozenByDate",
      "outputs": [
        {
          "name": "",
          "type": "address"
        }
      ],
      "payable": false,
      "stateMutability": "view",
      "type": "function"
    },
    {
      "constant": true,
      "inputs": [],
      "name": "totalSupply",
      "outputs": [
        {
          "name": "",
          "type": "uint256"
        }
      ],
      "payable": false,
      "stateMutability": "view",
      "type": "function"
    },
    {
      "constant": true,
      "inputs": [
        {
          "name": "",
          "type": "uint256"
        }
      ],
      "name": "ArrAccountIsNotFrozen",
      "outputs": [
        {
          "name": "",
          "type": "address"
        }
      ],
      "payable": false,
      "stateMutability": "view",
      "type": "function"
    },
    {
      "constant": true,
      "inputs": [],
      "name": "decimals",
      "outputs": [
        {
          "name": "",
          "type": "uint8"
        }
      ],
      "payable": false,
      "stateMutability": "view",
      "type": "function"
    },
    {
      "constant": true,
      "inputs": [
        {
          "name": "",
          "type": "uint256"
        }
      ],
      "name": "Arrholders",
      "outputs": [
        {
          "name": "",
          "type": "address"
        }
      ],
      "payable": false,
      "stateMutability": "view",
      "type": "function"
    },
    {
      "constant": true,
      "inputs": [
        {
          "name": "",
          "type": "address"
        }
      ],
      "name": "isArrAccountIsFrozen",
      "outputs": [
        {
          "name": "",
          "type": "bool"
        }
      ],
      "payable": false,
      "stateMutability": "view",
      "type": "function"
    },
    {
      "constant": true,
      "inputs": [
        {
          "name": "",
          "type": "address"
        }
      ],
      "name": "balanceOf",
      "outputs": [
        {
          "name": "",
          "type": "uint256"
        }
      ],
      "payable": false,
      "stateMutability": "view",
      "type": "function"
    },
    {
      "constant": true,
      "inputs": [
        {
          "name": "",
          "type": "uint256"
        }
      ],
      "name": "ArrAccountIsFrozen",
      "outputs": [
        {
          "name": "",
          "type": "address"
        }
      ],
      "payable": false,
      "stateMutability": "view",
      "type": "function"
    },
    {
      "constant": true,
      "inputs": [],
      "name": "CanChange",
      "outputs": [
        {
          "name": "",
          "type": "bool"
        }
      ],
      "payable": false,
      "stateMutability": "view",
      "type": "function"
    },
    {
      "constant": true,
      "inputs": [],
      "name": "owner",
      "outputs": [
        {
          "name": "",
          "type": "address"
        }
      ],
      "payable": false,
      "stateMutability": "view",
      "type": "function"
    },
    {
      "constant": true,
      "inputs": [
        {
          "name": "",
          "type": "address"
        }
      ],
      "name": "isArrAccountIsNotFrozenForReturn",
      "outputs": [
        {
          "name": "",
          "type": "bool"
        }
      ],
      "payable": false,
      "stateMutability": "view",
      "type": "function"
    },
    {
      "constant": true,
      "inputs": [],
      "name": "symbol",
      "outputs": [
        {
          "name": "",
          "type": "string"
        }
      ],
      "payable": false,
      "stateMutability": "view",
      "type": "function"
    },
    {
      "constant": true,
      "inputs": [
        {
          "name": "",
          "type": "address"
        }
      ],
      "name": "AccountIsNotFrozen",
      "outputs": [
        {
          "name": "",
          "type": "bool"
        }
      ],
      "payable": false,
      "stateMutability": "view",
      "type": "function"
    },
    {
      "constant": true,
      "inputs": [],
      "name": "Frozen",
      "outputs": [
        {
          "name": "",
          "type": "bool"
        }
      ],
      "payable": false,
      "stateMutability": "view",
      "type": "function"
    },
    {
      "constant": true,
      "inputs": [],
      "name": "TotalHoldersAmount",
      "outputs": [
        {
          "name": "",
          "type": "uint256"
        }
      ],
      "payable": false,
      "stateMutability": "view",
      "type": "function"
    },
    {
      "constant": true,
      "inputs": [],
      "name": "AddressForReturn",
      "outputs": [
        {
          "name": "",
          "type": "address"
        }
      ],
      "payable": false,
      "stateMutability": "view",
      "type": "function"
    },
    {
      "constant": true,
      "inputs": [
        {
          "name": "",
          "type": "uint256"
        }
      ],
      "name": "ArrAccountIsNotFrozenForReturn",
      "outputs": [
        {
          "name": "",
          "type": "address"
        }
      ],
      "payable": false,
      "stateMutability": "view",
      "type": "function"
    },
    {
      "constant": true,
      "inputs": [
        {
          "name": "",
          "type": "address"
        }
      ],
      "name": "AccountIsFrozen",
      "outputs": [
        {
          "name": "",
          "type": "bool"
        }
      ],
      "payable": false,
      "stateMutability": "view",
      "type": "function"
    },
    {
      "constant": true,
      "inputs": [
        {
          "name": "",
          "type": "address"
        }
      ],
      "name": "isHolder",
      "outputs": [
        {
          "name": "",
          "type": "bool"
        }
      ],
      "payable": false,
      "stateMutability": "view",
      "type": "function"
    },
    {
      "constant": true,
      "inputs": [
        {
          "name": "",
          "type": "address"
        }
      ],
      "name": "AccountIsNotFrozenForReturn",
      "outputs": [
        {
          "name": "",
          "type": "bool"
        }
      ],
      "payable": false,
      "stateMutability": "view",
      "type": "function"
    },
    {
      "constant": true,
      "inputs": [
        {
          "name": "",
          "type": "address"
        },
        {
          "name": "",
          "type": "address"
        }
      ],
      "name": "allowance",
      "outputs": [
        {
          "name": "",
          "type": "uint256"
        }
      ],
      "payable": false,
      "stateMutability": "view",
      "type": "function"
    },
    {
      "constant": true,
      "inputs": [
        {
          "name": "",
          "type": "address"
        }
      ],
      "name": "AccountIsFrozenByDate",
      "outputs": [
        {
          "name": "",
          "type": "uint256"
        }
      ],
      "payable": false,
      "stateMutability": "view",
      "type": "function"
    },
    {
      "constant": true,
      "inputs": [
        {
          "name": "",
          "type": "address"
        }
      ],
      "name": "isArrAccountIsNotFrozen",
      "outputs": [
        {
          "name": "",
          "type": "bool"
        }
      ],
      "payable": false,
      "stateMutability": "view",
      "type": "function"
    },
    {
      "constant": true,
      "inputs": [
        {
          "name": "",
          "type": "address"
        }
      ],
      "name": "isArrAccountIsFrozenByDate",
      "outputs": [
        {
          "name": "",
          "type": "bool"
        }
      ],
      "payable": false,
      "stateMutability": "view",
      "type": "function"
    },
    {
      "constant": true,
      "inputs": [],
      "name": "Admin",
      "outputs": [
        {
          "name": "",
          "type": "address"
        }
      ],
      "payable": false,
      "stateMutability": "view",
      "type": "function"
    },
    {
      "inputs": [],
      "payable": false,
      "stateMutability": "nonpayable",
      "type": "constructor"
    },
    {
      "payable": true,
      "stateMutability": "payable",
      "type": "fallback"
    },
    {
      "anonymous": false,
      "inputs": [
        {
          "indexed": true,
          "name": "from",
          "type": "address"
        },
        {
          "indexed": true,
          "name": "to",
          "type": "address"
        },
        {
          "indexed": false,
          "name": "value",
          "type": "uint256"
        }
      ],
      "name": "Transfer",
      "type": "event"
    },
    {
      "anonymous": false,
      "inputs": [
        {
          "indexed": true,
          "name": "tokenOwner",
          "type": "address"
        },
        {
          "indexed": true,
          "name": "spender",
          "type": "address"
        },
        {
          "indexed": false,
          "name": "tokens",
          "type": "uint256"
        }
      ],
      "name": "Approval",
      "type": "event"
    },
    {
      "anonymous": false,
      "inputs": [
        {
          "indexed": true,
          "name": "from",
          "type": "address"
        },
        {
          "indexed": false,
          "name": "value",
          "type": "uint256"
        }
      ],
      "name": "Burn",
      "type": "event"
    },
    {
      "constant": false,
      "inputs": [
        {
          "name": "_address",
          "type": "address"
        }
      ],
      "name": "setAdmin",
      "outputs": [],
      "payable": false,
      "stateMutability": "nonpayable",
      "type": "function"
    },
    {
      "constant": false,
      "inputs": [
        {
          "name": "_Frozen",
          "type": "bool"
        }
      ],
      "name": "setFrozen",
      "outputs": [],
      "payable": false,
      "stateMutability": "nonpayable",
      "type": "function"
    },
    {
      "constant": false,
      "inputs": [
        {
          "name": "_canChange",
          "type": "bool"
        }
      ],
      "name": "setCanChange",
      "outputs": [],
      "payable": false,
      "stateMutability": "nonpayable",
      "type": "function"
    },
    {
      "constant": false,
      "inputs": [
        {
          "name": "_address",
          "type": "address"
        },
        {
          "name": "_IsFrozen",
          "type": "bool"
        }
      ],
      "name": "setAccountIsFrozen",
      "outputs": [],
      "payable": false,
      "stateMutability": "nonpayable",
      "type": "function"
    },
    {
      "constant": false,
      "inputs": [
        {
          "name": "_address",
          "type": "address"
        },
        {
          "name": "_IsFrozen",
          "type": "bool"
        }
      ],
      "name": "setAccountIsNotFrozen",
      "outputs": [],
      "payable": false,
      "stateMutability": "nonpayable",
      "type": "function"
    },
    {
      "constant": false,
      "inputs": [
        {
          "name": "_address",
          "type": "address"
        },
        {
          "name": "_IsFrozen",
          "type": "bool"
        }
      ],
      "name": "setAccountIsNotFrozenForReturn",
      "outputs": [],
      "payable": false,
      "stateMutability": "nonpayable",
      "type": "function"
    },
    {
      "constant": false,
      "inputs": [
        {
          "name": "_address",
          "type": "address"
        },
        {
          "name": "_Date",
          "type": "uint256"
        }
      ],
      "name": "setAccountIsFrozenByDate",
      "outputs": [],
      "payable": false,
      "stateMutability": "nonpayable",
      "type": "function"
    },
    {
      "constant": false,
      "inputs": [
        {
          "name": "_to",
          "type": "address"
        },
        {
          "name": "_value",
          "type": "uint256"
        }
      ],
      "name": "transfer",
      "outputs": [],
      "payable": false,
      "stateMutability": "nonpayable",
      "type": "function"
    },
    {
      "constant": false,
      "inputs": [
        {
          "name": "_spender",
          "type": "address"
        },
        {
          "name": "_value",
          "type": "uint256"
        }
      ],
      "name": "approve",
      "outputs": [
        {
          "name": "success",
          "type": "bool"
        }
      ],
      "payable": false,
      "stateMutability": "nonpayable",
      "type": "function"
    },
    {
      "constant": false,
      "inputs": [
        {
          "name": "_from",
          "type": "address"
        },
        {
          "name": "_to",
          "type": "address"
        },
        {
          "name": "_value",
          "type": "uint256"
        }
      ],
      "name": "transferFrom",
      "outputs": [
        {
          "name": "success",
          "type": "bool"
        }
      ],
      "payable": false,
      "stateMutability": "nonpayable",
      "type": "function"
    },
    {
      "constant": false,
      "inputs": [
        {
          "name": "_value",
          "type": "uint256"
        }
      ],
      "name": "burn",
      "outputs": [
        {
          "name": "success",
          "type": "bool"
        }
      ],
      "payable": false,
      "stateMutability": "nonpayable",
      "type": "function"
    },
    {
      "constant": false,
      "inputs": [
        {
          "name": "_from",
          "type": "address"
        },
        {
          "name": "_value",
          "type": "uint256"
        }
      ],
      "name": "burnFrom",
      "outputs": [
        {
          "name": "success",
          "type": "bool"
        }
      ],
      "payable": false,
      "stateMutability": "nonpayable",
      "type": "function"
    },
    {
      "constant": true,
      "inputs": [],
      "name": "GetHoldersCount",
      "outputs": [
        {
          "name": "_HoldersCount",
          "type": "uint256"
        }
      ],
      "payable": false,
      "stateMutability": "view",
      "type": "function"
    },
    {
      "constant": true,
      "inputs": [],
      "name": "GetAccountIsFrozenCount",
      "outputs": [
        {
          "name": "_Count",
          "type": "uint256"
        }
      ],
      "payable": false,
      "stateMutability": "view",
      "type": "function"
    },
    {
      "constant": true,
      "inputs": [],
      "name": "GetAccountIsNotFrozenForReturnCount",
      "outputs": [
        {
          "name": "_Count",
          "type": "uint256"
        }
      ],
      "payable": false,
      "stateMutability": "view",
      "type": "function"
    },
    {
      "constant": true,
      "inputs": [],
      "name": "GetAccountIsNotFrozenCount",
      "outputs": [
        {
          "name": "_Count",
          "type": "uint256"
        }
      ],
      "payable": false,
      "stateMutability": "view",
      "type": "function"
    },
    {
      "constant": true,
      "inputs": [],
      "name": "GetAccountIsFrozenByDateCount",
      "outputs": [
        {
          "name": "_Count",
          "type": "uint256"
        }
      ],
      "payable": false,
      "stateMutability": "view",
      "type": "function"
    },
    {
      "constant": false,
      "inputs": [
        {
          "name": "_address",
          "type": "address"
        }
      ],
      "name": "SetAddressForReturn",
      "outputs": [
        {
          "name": "success",
          "type": "bool"
        }
      ],
      "payable": false,
      "stateMutability": "nonpayable",
      "type": "function"
    },
    {
      "constant": false,
      "inputs": [
        {
          "name": "_symbol",
          "type": "string"
        }
      ],
      "name": "setSymbol",
      "outputs": [],
      "payable": false,
      "stateMutability": "nonpayable",
      "type": "function"
    },
    {
      "constant": false,
      "inputs": [
        {
          "name": "_name",
          "type": "string"
        }
      ],
      "name": "setName",
      "outputs": [],
      "payable": false,
      "stateMutability": "nonpayable",
      "type": "function"
    }
  ],
  "bytecode": "0x60606040526040805190810160405280600781526020017f4352454449545300000000000000000000000000000000000000000000000000815250600190805190602001906200005192919062000244565b506040805190810160405280600281526020017f4353000000000000000000000000000000000000000000000000000000000000815250600290805190602001906200009f92919062000244565b506006600360006101000a81548160ff021916908360ff16021790555066038d7ea4c680006004556001600660006101000a81548160ff0219169083151502179055506001600660016101000a81548160ff02191690831515021790555034156200010957600080fd5b336000806101000a81548173ffffffffffffffffffffffffffffffffffffffff021916908373ffffffffffffffffffffffffffffffffffffffff160217905550600454600960003373ffffffffffffffffffffffffffffffffffffffff1673ffffffffffffffffffffffffffffffffffffffff16815260200190815260200160002081905550336014808054809190600101620001a79190620002cb565b815481101515620001b457fe5b906000526020600020900160006101000a81548173ffffffffffffffffffffffffffffffffffffffff021916908373ffffffffffffffffffffffffffffffffffffffff16021790555033600660026101000a81548173ffffffffffffffffffffffffffffffffffffffff021916908373ffffffffffffffffffffffffffffffffffffffff16021790555062000322565b828054600181600116156101000203166002900490600052602060002090601f016020900481019282601f106200028757805160ff1916838001178555620002b8565b82800160010185558215620002b8579182015b82811115620002b75782518255916020019190600101906200029a565b5b509050620002c79190620002fa565b5090565b815481835581811511620002f557818360005260206000209182019101620002f49190620002fa565b5b505050565b6200031f91905b808211156200031b57600081600090555060010162000301565b5090565b90565b6135d580620003326000396000f300606060405260043610610230576000357c0100000000000000000000000000000000000000000000000000000000900463ffffffff16806306fdde0314610235578063095ea7b3146102c35780630c7ca61e1461031d5780631299c8fe1461038057806318160ddd146103a9578063188dbc1a146103d257806323b872dd146104165780632a41d1ff1461048f578063313ce567146104f25780633bb735e7146105215780633c6403b41461058457806342966c68146105ad57806344caa8d6146105e8578063511c5d6614610639578063704b6c021461068a57806370a08231146106c357806370b0d4ac1461071057806379cc6790146107395780637e932d321461079357806382288e89146107b8578063876911ca146107fc578063894306d51461085f5780638da5cb5b1461088c5780638df6ad66146108e157806390dc063614610932578063952f2f6f1461095b57806395d89b411461099d5780639a7ee18c14610a2b578063a8cab3d114610a7c578063a9059cbb14610aa9578063b84c824614610aeb578063bb0ce7d314610b48578063bba4e4c014610b71578063bd98700814610bc6578063bdff85cf14610c0a578063c47f002714610c6d578063cf8eb59714610cca578063d4d7b19a14610d1b578063d9c6925e14610d6c578063dd62ed3e14610dbd578063e616c97514610e29578063e906086414610e52578063ef37052d14610e9f578063f0d5511c14610ef0578063fbdc562a14610f41578063ff1b636d14610f66575b600080fd5b341561024057600080fd5b610248610fbb565b6040518080602001828103825283818151815260200191508051906020019080838360005b8381101561028857808201518184015260208101905061026d565b50505050905090810190601f1680156102b55780820380516001836020036101000a031916815260200191505b509250505060405180910390f35b34156102ce57600080fd5b610303600480803573ffffffffffffffffffffffffffffffffffffffff16906020019091908035906020019091905050611059565b604051808215151515815260200191505060405180910390f35b341561032857600080fd5b61033e600480803590602001909190505061114b565b604051808273ffffffffffffffffffffffffffffffffffffffff1673ffffffffffffffffffffffffffffffffffffffff16815260200191505060405180910390f35b341561038b57600080fd5b61039361118a565b6040518082815260200191505060405180910390f35b34156103b457600080fd5b6103bc611197565b6040518082815260200191505060405180910390f35b34156103dd57600080fd5b610414600480803573ffffffffffffffffffffffffffffffffffffffff16906020019091908035151590602001909190505061119d565b005b341561042157600080fd5b610475600480803573ffffffffffffffffffffffffffffffffffffffff1690602001909190803573ffffffffffffffffffffffffffffffffffffffff169060200190919080359060200190919050506113e8565b604051808215151515815260200191505060405180910390f35b341561049a57600080fd5b6104b06004808035906020019091905050611a70565b604051808273ffffffffffffffffffffffffffffffffffffffff1673ffffffffffffffffffffffffffffffffffffffff16815260200191505060405180910390f35b34156104fd57600080fd5b610505611aaf565b604051808260ff1660ff16815260200191505060405180910390f35b341561052c57600080fd5b6105426004808035906020019091905050611ac2565b604051808273ffffffffffffffffffffffffffffffffffffffff1673ffffffffffffffffffffffffffffffffffffffff16815260200191505060405180910390f35b341561058f57600080fd5b610597611b01565b6040518082815260200191505060405180910390f35b34156105b857600080fd5b6105ce6004808035906020019091905050611b0e565b604051808215151515815260200191505060405180910390f35b34156105f357600080fd5b61061f600480803573ffffffffffffffffffffffffffffffffffffffff16906020019091905050611d48565b604051808215151515815260200191505060405180910390f35b341561064457600080fd5b610670600480803573ffffffffffffffffffffffffffffffffffffffff16906020019091905050611d68565b604051808215151515815260200191505060405180910390f35b341561069557600080fd5b6106c1600480803573ffffffffffffffffffffffffffffffffffffffff16906020019091905050611e86565b005b34156106ce57600080fd5b6106fa600480803573ffffffffffffffffffffffffffffffffffffffff16906020019091905050611f40565b6040518082815260200191505060405180910390f35b341561071b57600080fd5b610723611f58565b6040518082815260200191505060405180910390f35b341561074457600080fd5b610779600480803573ffffffffffffffffffffffffffffffffffffffff16906020019091908035906020019091905050611f65565b604051808215151515815260200191505060405180910390f35b341561079e57600080fd5b6107b6600480803515159060200190919050506123eb565b005b34156107c357600080fd5b6107fa600480803573ffffffffffffffffffffffffffffffffffffffff16906020019091908035151590602001909190505061247e565b005b341561080757600080fd5b61081d60048080359060200190919050506126c9565b604051808273ffffffffffffffffffffffffffffffffffffffff1673ffffffffffffffffffffffffffffffffffffffff16815260200191505060405180910390f35b341561086a57600080fd5b610872612708565b604051808215151515815260200191505060405180910390f35b341561089757600080fd5b61089f61271b565b604051808273ffffffffffffffffffffffffffffffffffffffff1673ffffffffffffffffffffffffffffffffffffffff16815260200191505060405180910390f35b34156108ec57600080fd5b610918600480803573ffffffffffffffffffffffffffffffffffffffff16906020019091905050612740565b604051808215151515815260200191505060405180910390f35b341561093d57600080fd5b610945612760565b6040518082815260200191505060405180910390f35b341561096657600080fd5b61099b600480803573ffffffffffffffffffffffffffffffffffffffff16906020019091908035906020019091905050612770565b005b34156109a857600080fd5b6109b06129a6565b6040518080602001828103825283818151815260200191508051906020019080838360005b838110156109f05780820151818401526020810190506109d5565b50505050905090810190601f168015610a1d5780820380516001836020036101000a031916815260200191505b509250505060405180910390f35b3415610a3657600080fd5b610a62600480803573ffffffffffffffffffffffffffffffffffffffff16906020019091905050612a44565b604051808215151515815260200191505060405180910390f35b3415610a8757600080fd5b610a8f612a64565b604051808215151515815260200191505060405180910390f35b3415610ab457600080fd5b610ae9600480803573ffffffffffffffffffffffffffffffffffffffff16906020019091908035906020019091905050612a77565b005b3415610af657600080fd5b610b46600480803590602001908201803590602001908080601f01602080910402602001604051908101604052809392919081815260200183838082843782019150505050505091905050612f5f565b005b3415610b5357600080fd5b610b5b612fef565b6040518082815260200191505060405180910390f35b3415610b7c57600080fd5b610b84612ff5565b604051808273ffffffffffffffffffffffffffffffffffffffff1673ffffffffffffffffffffffffffffffffffffffff16815260200191505060405180910390f35b3415610bd157600080fd5b610c08600480803573ffffffffffffffffffffffffffffffffffffffff16906020019091908035151590602001909190505061301b565b005b3415610c1557600080fd5b610c2b6004808035906020019091905050613266565b604051808273ffffffffffffffffffffffffffffffffffffffff1673ffffffffffffffffffffffffffffffffffffffff16815260200191505060405180910390f35b3415610c7857600080fd5b610cc8600480803590602001908201803590602001908080601f016020809104026020016040519081016040528093929190818152602001838380828437820191505050505050919050506132a5565b005b3415610cd557600080fd5b610d01600480803573ffffffffffffffffffffffffffffffffffffffff16906020019091905050613335565b604051808215151515815260200191505060405180910390f35b3415610d2657600080fd5b610d52600480803573ffffffffffffffffffffffffffffffffffffffff16906020019091905050613355565b604051808215151515815260200191505060405180910390f35b3415610d7757600080fd5b610da3600480803573ffffffffffffffffffffffffffffffffffffffff16906020019091905050613375565b604051808215151515815260200191505060405180910390f35b3415610dc857600080fd5b610e13600480803573ffffffffffffffffffffffffffffffffffffffff1690602001909190803573ffffffffffffffffffffffffffffffffffffffff16906020019091905050613395565b6040518082815260200191505060405180910390f35b3415610e3457600080fd5b610e3c6133ba565b6040518082815260200191505060405180910390f35b3415610e5d57600080fd5b610e89600480803573ffffffffffffffffffffffffffffffffffffffff169060200190919050506133c7565b6040518082815260200191505060405180910390f35b3415610eaa57600080fd5b610ed6600480803573ffffffffffffffffffffffffffffffffffffffff169060200190919050506133df565b604051808215151515815260200191505060405180910390f35b3415610efb57600080fd5b610f27600480803573ffffffffffffffffffffffffffffffffffffffff169060200190919050506133ff565b604051808215151515815260200191505060405180910390f35b3415610f4c57600080fd5b610f646004808035151590602001909190505061341f565b005b3415610f7157600080fd5b610f796134b2565b604051808273ffffffffffffffffffffffffffffffffffffffff1673ffffffffffffffffffffffffffffffffffffffff16815260200191505060405180910390f35b60018054600181600116156101000203166002900480601f0160208091040260200160405190810160405280929190818152602001828054600181600116156101000203166002900480156110515780601f1061102657610100808354040283529160200191611051565b820191906000526020600020905b81548152906001019060200180831161103457829003601f168201915b505050505081565b600081600a60003373ffffffffffffffffffffffffffffffffffffffff1673ffffffffffffffffffffffffffffffffffffffff16815260200190815260200160002060008573ffffffffffffffffffffffffffffffffffffffff1673ffffffffffffffffffffffffffffffffffffffff168152602001908152602001600020819055508273ffffffffffffffffffffffffffffffffffffffff163373ffffffffffffffffffffffffffffffffffffffff167f8c5be1e5ebec7d5bd14f71427d1e84f3dd0314c0f7b2291e5b200ac8c7c3b925846040518082815260200191505060405180910390a36001905092915050565b60188181548110151561115a57fe5b90600052602060002090016000915054906101000a900473ffffffffffffffffffffffffffffffffffffffff1681565b6000601880549050905090565b60045481565b6000809054906101000a900473ffffffffffffffffffffffffffffffffffffffff1673ffffffffffffffffffffffffffffffffffffffff163373ffffffffffffffffffffffffffffffffffffffff1614806112455750600660029054906101000a900473ffffffffffffffffffffffffffffffffffffffff1673ffffffffffffffffffffffffffffffffffffffff163373ffffffffffffffffffffffffffffffffffffffff16145b8015611264575060011515600660019054906101000a900460ff161515145b151561126f57600080fd5b80600b60008473ffffffffffffffffffffffffffffffffffffffff1673ffffffffffffffffffffffffffffffffffffffff16815260200190815260200160002060006101000a81548160ff02191690831515021790555060011515601060008473ffffffffffffffffffffffffffffffffffffffff1673ffffffffffffffffffffffffffffffffffffffff16815260200190815260200160002060009054906101000a900460ff1615151415156113e45781601580805480919060010161133691906134d8565b81548110151561134257fe5b906000526020600020900160006101000a81548173ffffffffffffffffffffffffffffffffffffffff021916908373ffffffffffffffffffffffffffffffffffffffff1602179055506001601060008473ffffffffffffffffffffffffffffffffffffffff1673ffffffffffffffffffffffffffffffffffffffff16815260200190815260200160002060006101000a81548160ff0219169083151502179055505b5050565b6000600660009054906101000a900460ff16158015611458575060011515600b60003373ffffffffffffffffffffffffffffffffffffffff1673ffffffffffffffffffffffffffffffffffffffff16815260200190815260200160002060009054906101000a900460ff16151514155b806114cb5750600660009054906101000a900460ff1680156114ca575060011515600c60003373ffffffffffffffffffffffffffffffffffffffff1673ffffffffffffffffffffffffffffffffffffffff16815260200190815260200160002060009054906101000a900460ff161515145b5b80156115155750600e60003373ffffffffffffffffffffffffffffffffffffffff1673ffffffffffffffffffffffffffffffffffffffff1681526020019081526020016000205442115b151561152057600080fd5b600660009054906101000a900460ff1615801561158e575060011515600b60008673ffffffffffffffffffffffffffffffffffffffff1673ffffffffffffffffffffffffffffffffffffffff16815260200190815260200160002060009054906101000a900460ff16151514155b806116015750600660009054906101000a900460ff168015611600575060011515600c60008673ffffffffffffffffffffffffffffffffffffffff1673ffffffffffffffffffffffffffffffffffffffff16815260200190815260200160002060009054906101000a900460ff161515145b5b801561164b5750600e60008573ffffffffffffffffffffffffffffffffffffffff1673ffffffffffffffffffffffffffffffffffffffff1681526020019081526020016000205442115b151561165657600080fd5b81600960008673ffffffffffffffffffffffffffffffffffffffff1673ffffffffffffffffffffffffffffffffffffffff16815260200190815260200160002054101515156116a457600080fd5b600960008473ffffffffffffffffffffffffffffffffffffffff1673ffffffffffffffffffffffffffffffffffffffff1681526020019081526020016000205482600960008673ffffffffffffffffffffffffffffffffffffffff1673ffffffffffffffffffffffffffffffffffffffff16815260200190815260200160002054011015151561173357600080fd5b600a60008573ffffffffffffffffffffffffffffffffffffffff1673ffffffffffffffffffffffffffffffffffffffff16815260200190815260200160002060003373ffffffffffffffffffffffffffffffffffffffff1673ffffffffffffffffffffffffffffffffffffffff1681526020019081526020016000205482111515156117be57600080fd5b81600960008673ffffffffffffffffffffffffffffffffffffffff1673ffffffffffffffffffffffffffffffffffffffff1681526020019081526020016000206000828254039250508190555081600960008573ffffffffffffffffffffffffffffffffffffffff1673ffffffffffffffffffffffffffffffffffffffff1681526020019081526020016000206000828254019250508190555081600a60008673ffffffffffffffffffffffffffffffffffffffff1673ffffffffffffffffffffffffffffffffffffffff16815260200190815260200160002060003373ffffffffffffffffffffffffffffffffffffffff1673ffffffffffffffffffffffffffffffffffffffff168152602001908152602001600020600082825403925050819055508273ffffffffffffffffffffffffffffffffffffffff168473ffffffffffffffffffffffffffffffffffffffff167fddf252ad1be2c89b69c2b068fc378daa952ba7f163c4a11628f55a4df523b3ef846040518082815260200191505060405180910390a360011515600f60008573ffffffffffffffffffffffffffffffffffffffff1673ffffffffffffffffffffffffffffffffffffffff16815260200190815260200160002060009054906101000a900460ff161515141515611a65578260148080548091906001016119b791906134d8565b8154811015156119c357fe5b906000526020600020900160006101000a81548173ffffffffffffffffffffffffffffffffffffffff021916908373ffffffffffffffffffffffffffffffffffffffff1602179055506001600f60008573ffffffffffffffffffffffffffffffffffffffff1673ffffffffffffffffffffffffffffffffffffffff16815260200190815260200160002060006101000a81548160ff0219169083151502179055505b600190509392505050565b601681815481101515611a7f57fe5b90600052602060002090016000915054906101000a900473ffffffffffffffffffffffffffffffffffffffff1681565b600360009054906101000a900460ff1681565b601481815481101515611ad157fe5b90600052602060002090016000915054906101000a900473ffffffffffffffffffffffffffffffffffffffff1681565b6000601680549050905090565b6000600660009054906101000a900460ff16158015611b7e575060011515600b60003373ffffffffffffffffffffffffffffffffffffffff1673ffffffffffffffffffffffffffffffffffffffff16815260200190815260200160002060009054906101000a900460ff16151514155b80611bf15750600660009054906101000a900460ff168015611bf0575060011515600c60003373ffffffffffffffffffffffffffffffffffffffff1673ffffffffffffffffffffffffffffffffffffffff16815260200190815260200160002060009054906101000a900460ff161515145b5b8015611c3b5750600e60003373ffffffffffffffffffffffffffffffffffffffff1673ffffffffffffffffffffffffffffffffffffffff1681526020019081526020016000205442115b1515611c4657600080fd5b81600960003373ffffffffffffffffffffffffffffffffffffffff1673ffffffffffffffffffffffffffffffffffffffff1681526020019081526020016000205410151515611c9457600080fd5b81600960003373ffffffffffffffffffffffffffffffffffffffff1673ffffffffffffffffffffffffffffffffffffffff16815260200190815260200160002060008282540392505081905550816004600082825403925050819055503373ffffffffffffffffffffffffffffffffffffffff167fcc16f5dbb4873280815c1ee09dbd06736cffcc184412cf7a71a0fdb75d397ca5836040518082815260200191505060405180910390a260019050919050565b60106020528060005260406000206000915054906101000a900460ff1681565b60008060009054906101000a900473ffffffffffffffffffffffffffffffffffffffff1673ffffffffffffffffffffffffffffffffffffffff163373ffffffffffffffffffffffffffffffffffffffff161480611e125750600660029054906101000a900473ffffffffffffffffffffffffffffffffffffffff1673ffffffffffffffffffffffffffffffffffffffff163373ffffffffffffffffffffffffffffffffffffffff16145b8015611e31575060011515600660019054906101000a900460ff161515145b1515611e3c57600080fd5b81600760006101000a81548173ffffffffffffffffffffffffffffffffffffffff021916908373ffffffffffffffffffffffffffffffffffffffff16021790555060019050919050565b6000809054906101000a900473ffffffffffffffffffffffffffffffffffffffff1673ffffffffffffffffffffffffffffffffffffffff163373ffffffffffffffffffffffffffffffffffffffff16141515611ee157600080fd5b600660019054906101000a900460ff161515611efc57600080fd5b80600660026101000a81548173ffffffffffffffffffffffffffffffffffffffff021916908373ffffffffffffffffffffffffffffffffffffffff16021790555050565b60096020528060005260406000206000915090505481565b6000601780549050905090565b6000600660009054906101000a900460ff16158015611fd5575060011515600b60003373ffffffffffffffffffffffffffffffffffffffff1673ffffffffffffffffffffffffffffffffffffffff16815260200190815260200160002060009054906101000a900460ff16151514155b806120485750600660009054906101000a900460ff168015612047575060011515600c60003373ffffffffffffffffffffffffffffffffffffffff1673ffffffffffffffffffffffffffffffffffffffff16815260200190815260200160002060009054906101000a900460ff161515145b5b80156120925750600e60003373ffffffffffffffffffffffffffffffffffffffff1673ffffffffffffffffffffffffffffffffffffffff1681526020019081526020016000205442115b151561209d57600080fd5b600660009054906101000a900460ff1615801561210b575060011515600b60008573ffffffffffffffffffffffffffffffffffffffff1673ffffffffffffffffffffffffffffffffffffffff16815260200190815260200160002060009054906101000a900460ff16151514155b8061217e5750600660009054906101000a900460ff16801561217d575060011515600c60008573ffffffffffffffffffffffffffffffffffffffff1673ffffffffffffffffffffffffffffffffffffffff16815260200190815260200160002060009054906101000a900460ff161515145b5b80156121c85750600e60008473ffffffffffffffffffffffffffffffffffffffff1673ffffffffffffffffffffffffffffffffffffffff1681526020019081526020016000205442115b15156121d357600080fd5b81600960008573ffffffffffffffffffffffffffffffffffffffff1673ffffffffffffffffffffffffffffffffffffffff168152602001908152602001600020541015151561222157600080fd5b600a60008473ffffffffffffffffffffffffffffffffffffffff1673ffffffffffffffffffffffffffffffffffffffff16815260200190815260200160002060003373ffffffffffffffffffffffffffffffffffffffff1673ffffffffffffffffffffffffffffffffffffffff1681526020019081526020016000205482111515156122ac57600080fd5b81600960008573ffffffffffffffffffffffffffffffffffffffff1673ffffffffffffffffffffffffffffffffffffffff1681526020019081526020016000206000828254039250508190555081600a60008573ffffffffffffffffffffffffffffffffffffffff1673ffffffffffffffffffffffffffffffffffffffff16815260200190815260200160002060003373ffffffffffffffffffffffffffffffffffffffff1673ffffffffffffffffffffffffffffffffffffffff16815260200190815260200160002060008282540392505081905550816004600082825403925050819055508273ffffffffffffffffffffffffffffffffffffffff167fcc16f5dbb4873280815c1ee09dbd06736cffcc184412cf7a71a0fdb75d397ca5836040518082815260200191505060405180910390a26001905092915050565b6000809054906101000a900473ffffffffffffffffffffffffffffffffffffffff1673ffffffffffffffffffffffffffffffffffffffff163373ffffffffffffffffffffffffffffffffffffffff1614151561244657600080fd5b600660019054906101000a900460ff16151561246157600080fd5b80600660006101000a81548160ff02191690831515021790555050565b6000809054906101000a900473ffffffffffffffffffffffffffffffffffffffff1673ffffffffffffffffffffffffffffffffffffffff163373ffffffffffffffffffffffffffffffffffffffff1614806125265750600660029054906101000a900473ffffffffffffffffffffffffffffffffffffffff1673ffffffffffffffffffffffffffffffffffffffff163373ffffffffffffffffffffffffffffffffffffffff16145b8015612545575060011515600660019054906101000a900460ff161515145b151561255057600080fd5b80600c60008473ffffffffffffffffffffffffffffffffffffffff1673ffffffffffffffffffffffffffffffffffffffff16815260200190815260200160002060006101000a81548160ff02191690831515021790555060011515601160008473ffffffffffffffffffffffffffffffffffffffff1673ffffffffffffffffffffffffffffffffffffffff16815260200190815260200160002060009054906101000a900460ff1615151415156126c55781601680805480919060010161261791906134d8565b81548110151561262357fe5b906000526020600020900160006101000a81548173ffffffffffffffffffffffffffffffffffffffff021916908373ffffffffffffffffffffffffffffffffffffffff1602179055506001601160008473ffffffffffffffffffffffffffffffffffffffff1673ffffffffffffffffffffffffffffffffffffffff16815260200190815260200160002060006101000a81548160ff0219169083151502179055505b5050565b6015818154811015156126d857fe5b90600052602060002090016000915054906101000a900473ffffffffffffffffffffffffffffffffffffffff1681565b600660019054906101000a900460ff1681565b6000809054906101000a900473ffffffffffffffffffffffffffffffffffffffff1681565b60126020528060005260406000206000915054906101000a900460ff1681565b6000600160148054905003905090565b6000809054906101000a900473ffffffffffffffffffffffffffffffffffffffff1673ffffffffffffffffffffffffffffffffffffffff163373ffffffffffffffffffffffffffffffffffffffff1614806128185750600660029054906101000a900473ffffffffffffffffffffffffffffffffffffffff1673ffffffffffffffffffffffffffffffffffffffff163373ffffffffffffffffffffffffffffffffffffffff16145b8015612837575060011515600660019054906101000a900460ff161515145b151561284257600080fd5b601360008373ffffffffffffffffffffffffffffffffffffffff1673ffffffffffffffffffffffffffffffffffffffff16815260200190815260200160002060009054906101000a900460ff1615151561289b57600080fd5b80600e60008473ffffffffffffffffffffffffffffffffffffffff1673ffffffffffffffffffffffffffffffffffffffff168152602001908152602001600020819055508160188080548091906001016128f591906134d8565b81548110151561290157fe5b906000526020600020900160006101000a81548173ffffffffffffffffffffffffffffffffffffffff021916908373ffffffffffffffffffffffffffffffffffffffff1602179055506001601360008473ffffffffffffffffffffffffffffffffffffffff1673ffffffffffffffffffffffffffffffffffffffff16815260200190815260200160002060006101000a81548160ff0219169083151502179055505050565b60028054600181600116156101000203166002900480601f016020809104026020016040519081016040528092919081815260200182805460018160011615610100020316600290048015612a3c5780601f10612a1157610100808354040283529160200191612a3c565b820191906000526020600020905b815481529060010190602001808311612a1f57829003601f168201915b505050505081565b600c6020528060005260406000206000915054906101000a900460ff1681565b600660009054906101000a900460ff1681565b600660009054906101000a900460ff16158015612ae5575060011515600b60003373ffffffffffffffffffffffffffffffffffffffff1673ffffffffffffffffffffffffffffffffffffffff16815260200190815260200160002060009054906101000a900460ff16151514155b80612b585750600660009054906101000a900460ff168015612b57575060011515600c60003373ffffffffffffffffffffffffffffffffffffffff1673ffffffffffffffffffffffffffffffffffffffff16815260200190815260200160002060009054906101000a900460ff161515145b5b80612c0c575060011515600d60003373ffffffffffffffffffffffffffffffffffffffff1673ffffffffffffffffffffffffffffffffffffffff16815260200190815260200160002060009054906101000a900460ff161515148015612c0b5750600760009054906101000a900473ffffffffffffffffffffffffffffffffffffffff1673ffffffffffffffffffffffffffffffffffffffff168273ffffffffffffffffffffffffffffffffffffffff16145b5b8015612c565750600e60003373ffffffffffffffffffffffffffffffffffffffff1673ffffffffffffffffffffffffffffffffffffffff1681526020019081526020016000205442115b1515612c6157600080fd5b80600960003373ffffffffffffffffffffffffffffffffffffffff1673ffffffffffffffffffffffffffffffffffffffff1681526020019081526020016000205410151515612caf57600080fd5b600960008373ffffffffffffffffffffffffffffffffffffffff1673ffffffffffffffffffffffffffffffffffffffff1681526020019081526020016000205481600960008573ffffffffffffffffffffffffffffffffffffffff1673ffffffffffffffffffffffffffffffffffffffff168152602001908152602001600020540110151515612d3e57600080fd5b80600960003373ffffffffffffffffffffffffffffffffffffffff1673ffffffffffffffffffffffffffffffffffffffff1681526020019081526020016000206000828254039250508190555080600960008473ffffffffffffffffffffffffffffffffffffffff1673ffffffffffffffffffffffffffffffffffffffff168152602001908152602001600020600082825401925050819055508173ffffffffffffffffffffffffffffffffffffffff163373ffffffffffffffffffffffffffffffffffffffff167fddf252ad1be2c89b69c2b068fc378daa952ba7f163c4a11628f55a4df523b3ef836040518082815260200191505060405180910390a360011515600f60008473ffffffffffffffffffffffffffffffffffffffff1673ffffffffffffffffffffffffffffffffffffffff16815260200190815260200160002060009054906101000a900460ff161515141515612f5b57816014808054809190600101612ead91906134d8565b815481101515612eb957fe5b906000526020600020900160006101000a81548173ffffffffffffffffffffffffffffffffffffffff021916908373ffffffffffffffffffffffffffffffffffffffff1602179055506001600f60008473ffffffffffffffffffffffffffffffffffffffff1673ffffffffffffffffffffffffffffffffffffffff16815260200190815260200160002060006101000a81548160ff0219169083151502179055505b5050565b6000809054906101000a900473ffffffffffffffffffffffffffffffffffffffff1673ffffffffffffffffffffffffffffffffffffffff163373ffffffffffffffffffffffffffffffffffffffff16141515612fba57600080fd5b600660019054906101000a900460ff161515612fd557600080fd5b8060029080519060200190612feb929190613504565b5050565b60055481565b600760009054906101000a900473ffffffffffffffffffffffffffffffffffffffff1681565b6000809054906101000a900473ffffffffffffffffffffffffffffffffffffffff1673ffffffffffffffffffffffffffffffffffffffff163373ffffffffffffffffffffffffffffffffffffffff1614806130c35750600660029054906101000a900473ffffffffffffffffffffffffffffffffffffffff1673ffffffffffffffffffffffffffffffffffffffff163373ffffffffffffffffffffffffffffffffffffffff16145b80156130e2575060011515600660019054906101000a900460ff161515145b15156130ed57600080fd5b80600d60008473ffffffffffffffffffffffffffffffffffffffff1673ffffffffffffffffffffffffffffffffffffffff16815260200190815260200160002060006101000a81548160ff02191690831515021790555060011515601260008473ffffffffffffffffffffffffffffffffffffffff1673ffffffffffffffffffffffffffffffffffffffff16815260200190815260200160002060009054906101000a900460ff161515141515613262578160178080548091906001016131b491906134d8565b8154811015156131c057fe5b906000526020600020900160006101000a81548173ffffffffffffffffffffffffffffffffffffffff021916908373ffffffffffffffffffffffffffffffffffffffff1602179055506001601260008473ffffffffffffffffffffffffffffffffffffffff1673ffffffffffffffffffffffffffffffffffffffff16815260200190815260200160002060006101000a81548160ff0219169083151502179055505b5050565b60178181548110151561327557fe5b90600052602060002090016000915054906101000a900473ffffffffffffffffffffffffffffffffffffffff1681565b6000809054906101000a900473ffffffffffffffffffffffffffffffffffffffff1673ffffffffffffffffffffffffffffffffffffffff163373ffffffffffffffffffffffffffffffffffffffff1614151561330057600080fd5b600660019054906101000a900460ff16151561331b57600080fd5b8060019080519060200190613331929190613504565b5050565b600b6020528060005260406000206000915054906101000a900460ff1681565b600f6020528060005260406000206000915054906101000a900460ff1681565b600d6020528060005260406000206000915054906101000a900460ff1681565b600a602052816000526040600020602052806000526040600020600091509150505481565b6000601580549050905090565b600e6020528060005260406000206000915090505481565b60116020528060005260406000206000915054906101000a900460ff1681565b60136020528060005260406000206000915054906101000a900460ff1681565b6000809054906101000a900473ffffffffffffffffffffffffffffffffffffffff1673ffffffffffffffffffffffffffffffffffffffff163373ffffffffffffffffffffffffffffffffffffffff1614151561347a57600080fd5b600660019054906101000a900460ff16151561349557600080fd5b80600660016101000a81548160ff02191690831515021790555050565b600660029054906101000a900473ffffffffffffffffffffffffffffffffffffffff1681565b8154818355818115116134ff578183600052602060002091820191016134fe9190613584565b5b505050565b828054600181600116156101000203166002900490600052602060002090601f016020900481019282601f1061354557805160ff1916838001178555613573565b82800160010185558215613573579182015b82811115613572578251825591602001919060010190613557565b5b5090506135809190613584565b5090565b6135a691905b808211156135a257600081600090555060010161358a565b5090565b905600a165627a7a72305820dc833afa3747003d685958075f0cbde5084c426b159b54a565d5b32364ee95050029",
  "source": "pragma solidity ^ 0.4.19;\n\n\ncontract Ownable {\n    address public owner;\n    function Ownable() public {\n        owner = msg.sender;\n    }\n\n    modifier onlyOwner {\n        require(msg.sender == owner);\n        _;\n    }\n    \n    \n   \n}\n\n\ncontract CREDITS is Ownable{\n    /* Public variables of the token */\n    string public name = 'CREDITS';\n    string public symbol = 'CS';\n    uint8 public decimals = 6;\n    uint256 public totalSupply = 1000000000000000;\n    uint public TotalHoldersAmount;\n    /*Freeze transfer from all accounts */\n    bool public Frozen=true;\n    bool public CanChange=true;\n    address public Admin;\n    address public AddressForReturn;\n    address[] Accounts;\n    /* This creates an array with all balances */\n    mapping(address => uint256) public balanceOf;\n    mapping(address => mapping(address => uint256)) public allowance;\n   /*Individual Freeze*/\n    mapping(address => bool) public AccountIsFrozen;\n    /*Allow transfer for ICO, Admin accounts if IsFrozen==true*/\n    mapping(address => bool) public AccountIsNotFrozen;\n   /*Allow transfer tokens only to ReturnWallet*/\n    mapping(address => bool) public AccountIsNotFrozenForReturn;\n    mapping(address => uint) public AccountIsFrozenByDate;\n    \n    mapping (address => bool) public isHolder;\n    mapping (address => bool) public isArrAccountIsFrozen;\n    mapping (address => bool) public isArrAccountIsNotFrozen;\n    mapping (address => bool) public isArrAccountIsNotFrozenForReturn;\n    mapping (address => bool) public isArrAccountIsFrozenByDate;\n    address [] public Arrholders;\n    address [] public ArrAccountIsFrozen;\n    address [] public ArrAccountIsNotFrozen;\n    address [] public ArrAccountIsNotFrozenForReturn;\n    address [] public ArrAccountIsFrozenByDate;\n   \n    \n    \n    /* This generates a public event on the blockchain that will notify clients */\n    event Transfer(address indexed from, address indexed to, uint256 value);\n    event Approval(address indexed tokenOwner, address indexed spender, uint tokens);\n    event Burn(address indexed from, uint256 value);\n    \n    modifier IsNotFrozen{\n      require(((!Frozen&&AccountIsFrozen[msg.sender]!=true)||((Frozen)&&AccountIsNotFrozen[msg.sender]==true))&&now>AccountIsFrozenByDate[msg.sender]);\n      _;\n     }\n     \n     modifier isCanChange{\n      require((msg.sender==owner||msg.sender==Admin)&&CanChange==true);\n      _;\n     }\n     \n     \n     \n     \n    /* Initializes contract with initial supply tokens to the creator of the contract */\n   \n  function CREDITS() public {\n        balanceOf[msg.sender] = totalSupply;\n        Arrholders[Arrholders.length++]=msg.sender;\n        Admin=msg.sender;\n    }\n    \n     function setAdmin(address _address) public onlyOwner{\n        require(CanChange);\n        Admin=_address;\n    }\n    \n   function setFrozen(bool _Frozen)public onlyOwner{\n      require(CanChange);\n      Frozen=_Frozen;\n    }\n    \n    function setCanChange(bool _canChange)public onlyOwner{\n      require(CanChange);\n      CanChange=_canChange;\n    }\n    \n    function setAccountIsFrozen(address _address, bool _IsFrozen)public isCanChange{\n     AccountIsFrozen[_address]=_IsFrozen;\n     if (isArrAccountIsFrozen[_address] != true) {\n        ArrAccountIsFrozen[ArrAccountIsFrozen.length++] = _address;\n        isArrAccountIsFrozen[_address] = true;\n    }\n    }\n    \n    function setAccountIsNotFrozen(address _address, bool _IsFrozen)public isCanChange{\n     AccountIsNotFrozen[_address]=_IsFrozen;\n     if (isArrAccountIsNotFrozen[_address] != true) {\n        ArrAccountIsNotFrozen[ArrAccountIsNotFrozen.length++] = _address;\n        isArrAccountIsNotFrozen[_address] = true;\n    }\n    }\n    \n    function setAccountIsNotFrozenForReturn(address _address, bool _IsFrozen)public isCanChange{\n     AccountIsNotFrozenForReturn[_address]=_IsFrozen;\n      if (isArrAccountIsNotFrozenForReturn[_address] != true) {\n        ArrAccountIsNotFrozenForReturn[ArrAccountIsNotFrozenForReturn.length++] = _address;\n        isArrAccountIsNotFrozenForReturn[_address] = true;\n    }\n    }\n    \n    function setAccountIsFrozenByDate(address _address, uint _Date)public isCanChange{\n    \n        require (!isArrAccountIsFrozenByDate[_address]);\n        AccountIsFrozenByDate[_address]=_Date;\n        ArrAccountIsFrozenByDate[ArrAccountIsFrozenByDate.length++] = _address;\n        isArrAccountIsFrozenByDate[_address] = true;\n    \n    }\n    \n    /* Send coins */\n    function transfer(address _to, uint256 _value) public  {\n        require(((!Frozen&&AccountIsFrozen[msg.sender]!=true)||((Frozen)&&AccountIsNotFrozen[msg.sender]==true)||(AccountIsNotFrozenForReturn[msg.sender]==true&&_to==AddressForReturn))&&now>AccountIsFrozenByDate[msg.sender]);\n        require(balanceOf[msg.sender] >= _value); // Check if the sender has enough\n        require (balanceOf[_to] + _value >= balanceOf[_to]); // Check for overflows\n        balanceOf[msg.sender] -= _value; // Subtract from the sender\n        balanceOf[_to] += _value; // Add the same to the recipient\n        Transfer(msg.sender, _to, _value); // Notify anyone listening that this transfer took place\n        if (isHolder[_to] != true) {\n        Arrholders[Arrholders.length++] = _to;\n        isHolder[_to] = true;\n    }}\n    \n  \n \n    /* Allow another contract to spend some tokens in your behalf */\n    function approve(address _spender, uint256 _value)public\n    returns(bool success) {\n        allowance[msg.sender][_spender] = _value;\n        Approval(msg.sender, _spender, _value);\n        return true;\n    }\n\n   \n\n    /* A contract attempts to get the coins */\n    function transferFrom(address _from, address _to, uint256 _value)public IsNotFrozen returns(bool success)  {\n        require(((!Frozen&&AccountIsFrozen[_from]!=true)||((Frozen)&&AccountIsNotFrozen[_from]==true))&&now>AccountIsFrozenByDate[_from]);\n        require (balanceOf[_from] >= _value) ; // Check if the sender has enough\n        require (balanceOf[_to] + _value >= balanceOf[_to]) ; // Check for overflows\n        require (_value <= allowance[_from][msg.sender]) ; // Check allowance\n        balanceOf[_from] -= _value; // Subtract from the sender\n        balanceOf[_to] += _value; // Add the same to the recipient\n        allowance[_from][msg.sender] -= _value;\n        Transfer(_from, _to, _value);\n        if (isHolder[_to] != true) {\n        Arrholders[Arrholders.length++] = _to;\n        isHolder[_to] = true;\n        }\n        return true;\n    }\n /* @param _value the amount of money to burn*/\n   \n    function burn(uint256 _value) public IsNotFrozen  returns (bool success) {\n        require(balanceOf[msg.sender] >= _value);   // Check if the sender has enough\n        balanceOf[msg.sender] -= _value;            // Subtract from the sender\n        totalSupply -= _value;                      // Updates totalSupply\n        Burn(msg.sender, _value);\n        return true;\n    }\n     /* Destroy tokens from other account  */\n   \n    function burnFrom(address _from, uint256 _value) public IsNotFrozen returns (bool success) {\n        require(((!Frozen&&AccountIsFrozen[_from]!=true)||((Frozen)&&AccountIsNotFrozen[_from]==true))&&now>AccountIsFrozenByDate[_from]);\n        require(balanceOf[_from] >= _value);                // Check if the targeted balance is enough\n        require(_value <= allowance[_from][msg.sender]);    // Check allowance\n        balanceOf[_from] -= _value;                         // Subtract from the targeted balance\n        allowance[_from][msg.sender] -= _value;             // Subtract from the sender's allowance\n        totalSupply -= _value;                              // Update totalSupply\n        Burn(_from, _value);\n        return true;\n    }\n        \n   \n    \n    function GetHoldersCount () public view returns (uint _HoldersCount){\n  \n         return (Arrholders.length-1);\n    }\n    \n    function GetAccountIsFrozenCount () public view returns (uint _Count){\n  \n         return (ArrAccountIsFrozen.length);\n    }\n    \n    function GetAccountIsNotFrozenForReturnCount () public view returns (uint _Count){\n  \n         return (ArrAccountIsNotFrozenForReturn.length);\n    }\n    \n    function GetAccountIsNotFrozenCount () public view returns (uint _Count){\n  \n         return (ArrAccountIsNotFrozen.length);\n    }\n    \n     function GetAccountIsFrozenByDateCount () public view returns (uint _Count){\n  \n         return (ArrAccountIsFrozenByDate.length);\n    }\n     \n     function SetAddressForReturn (address _address) public isCanChange  returns (bool success ){\n         AddressForReturn=_address;\n         return true;\n    }\n    \n    function setSymbol(string _symbol) public onlyOwner {\n        require(CanChange);\n        symbol = _symbol;\n    }\n    \n    function setName(string _name) public onlyOwner {\n        require(CanChange);\n        name = _name;\n    }\n    \n    \n    /* This unnamed function is called whenever someone tries to send ether to it */\n   function () public payable {\n         revert();\n    }\n}",
  "sourcePath": "/Users/thomas/Code/Learn/ethereum_masterclass_truffle_test/contracts/tokens/CREDITS.sol",
  "compiler": {
    "name": "solc",
    "version": "0.4.21+commit.dfe3193c.Emscripten.clang"
  },
  "schemaVersion": "2.0.0",
  "updatedAt": "2018-04-23T12:14:58.689Z"
}