{
  "contractName": "Exchange",
  "abi": [
    {
      "constant": false,
      "inputs": [],
      "name": "acceptOwnership",
      "outputs": [],
      "payable": false,
      "stateMutability": "nonpayable",
      "type": "function"
    },
    {
      "constant": true,
      "inputs": [],
      "name": "owner",
      "outputs": [
        {
          "name": "",
          "type": "address"
        }
      ],
      "payable": false,
      "stateMutability": "view",
      "type": "function"
    },
    {
      "constant": true,
      "inputs": [],
      "name": "newOwner",
      "outputs": [
        {
          "name": "",
          "type": "address"
        }
      ],
      "payable": false,
      "stateMutability": "view",
      "type": "function"
    },
    {
      "constant": false,
      "inputs": [
        {
          "name": "_newOwner",
          "type": "address"
        }
      ],
      "name": "transferOwnership",
      "outputs": [],
      "payable": false,
      "stateMutability": "nonpayable",
      "type": "function"
    },
    {
      "anonymous": false,
      "inputs": [
        {
          "indexed": true,
          "name": "_from",
          "type": "address"
        },
        {
          "indexed": true,
          "name": "_symbolIndex",
          "type": "uint256"
        },
        {
          "indexed": false,
          "name": "_amount",
          "type": "uint256"
        },
        {
          "indexed": false,
          "name": "_timestamp",
          "type": "uint256"
        }
      ],
      "name": "DepositForTokenReceived",
      "type": "event"
    },
    {
      "anonymous": false,
      "inputs": [
        {
          "indexed": true,
          "name": "_to",
          "type": "address"
        },
        {
          "indexed": true,
          "name": "_symbolIndex",
          "type": "uint256"
        },
        {
          "indexed": false,
          "name": "_amount",
          "type": "uint256"
        },
        {
          "indexed": false,
          "name": "_timestamp",
          "type": "uint256"
        }
      ],
      "name": "WithdrawalToken",
      "type": "event"
    },
    {
      "anonymous": false,
      "inputs": [
        {
          "indexed": true,
          "name": "_from",
          "type": "address"
        },
        {
          "indexed": false,
          "name": "_amount",
          "type": "uint256"
        },
        {
          "indexed": false,
          "name": "_timestamp",
          "type": "uint256"
        }
      ],
      "name": "DepositForEthReceived",
      "type": "event"
    },
    {
      "anonymous": false,
      "inputs": [
        {
          "indexed": true,
          "name": "_to",
          "type": "address"
        },
        {
          "indexed": false,
          "name": "_amount",
          "type": "uint256"
        },
        {
          "indexed": false,
          "name": "_timestamp",
          "type": "uint256"
        }
      ],
      "name": "WithdrawalEth",
      "type": "event"
    },
    {
      "anonymous": false,
      "inputs": [
        {
          "indexed": true,
          "name": "_symbolIndex",
          "type": "uint256"
        },
        {
          "indexed": true,
          "name": "_who",
          "type": "address"
        },
        {
          "indexed": false,
          "name": "_amountTokens",
          "type": "uint256"
        },
        {
          "indexed": false,
          "name": "_priceInWei",
          "type": "uint256"
        },
        {
          "indexed": false,
          "name": "_orderKey",
          "type": "uint256"
        }
      ],
      "name": "LimitSellOrderCreated",
      "type": "event"
    },
    {
      "anonymous": false,
      "inputs": [
        {
          "indexed": true,
          "name": "_symbolIndex",
          "type": "uint256"
        },
        {
          "indexed": false,
          "name": "_amount",
          "type": "uint256"
        },
        {
          "indexed": false,
          "name": "_priceInWei",
          "type": "uint256"
        },
        {
          "indexed": false,
          "name": "_orderKey",
          "type": "uint256"
        }
      ],
      "name": "SellOrderFulfilled",
      "type": "event"
    },
    {
      "anonymous": false,
      "inputs": [
        {
          "indexed": true,
          "name": "_symbolIndex",
          "type": "uint256"
        },
        {
          "indexed": false,
          "name": "_priceInWei",
          "type": "uint256"
        },
        {
          "indexed": false,
          "name": "_orderKey",
          "type": "uint256"
        }
      ],
      "name": "SellOrderCanceled",
      "type": "event"
    },
    {
      "anonymous": false,
      "inputs": [
        {
          "indexed": true,
          "name": "_symbolIndex",
          "type": "uint256"
        },
        {
          "indexed": true,
          "name": "_who",
          "type": "address"
        },
        {
          "indexed": false,
          "name": "_amountTokens",
          "type": "uint256"
        },
        {
          "indexed": false,
          "name": "_priceInWei",
          "type": "uint256"
        },
        {
          "indexed": false,
          "name": "_orderKey",
          "type": "uint256"
        }
      ],
      "name": "LimitBuyOrderCreated",
      "type": "event"
    },
    {
      "anonymous": false,
      "inputs": [
        {
          "indexed": true,
          "name": "_symbolIndex",
          "type": "uint256"
        },
        {
          "indexed": false,
          "name": "_amount",
          "type": "uint256"
        },
        {
          "indexed": false,
          "name": "_priceInWei",
          "type": "uint256"
        },
        {
          "indexed": false,
          "name": "_orderKey",
          "type": "uint256"
        }
      ],
      "name": "BuyOrderFulfilled",
      "type": "event"
    },
    {
      "anonymous": false,
      "inputs": [
        {
          "indexed": true,
          "name": "_symbolIndex",
          "type": "uint256"
        },
        {
          "indexed": false,
          "name": "_priceInWei",
          "type": "uint256"
        },
        {
          "indexed": false,
          "name": "_orderKey",
          "type": "uint256"
        }
      ],
      "name": "BuyOrderCanceled",
      "type": "event"
    },
    {
      "anonymous": false,
      "inputs": [
        {
          "indexed": false,
          "name": "_symbolIndex",
          "type": "uint256"
        },
        {
          "indexed": false,
          "name": "_token",
          "type": "string"
        },
        {
          "indexed": false,
          "name": "_timestamp",
          "type": "uint256"
        }
      ],
      "name": "TokenAddedToSystem",
      "type": "event"
    },
    {
      "anonymous": false,
      "inputs": [
        {
          "indexed": true,
          "name": "_from",
          "type": "address"
        },
        {
          "indexed": true,
          "name": "_to",
          "type": "address"
        }
      ],
      "name": "OwnershipTransferred",
      "type": "event"
    },
    {
      "constant": false,
      "inputs": [],
      "name": "depositEther",
      "outputs": [],
      "payable": true,
      "stateMutability": "payable",
      "type": "function"
    },
    {
      "constant": false,
      "inputs": [
        {
          "name": "_amountInWei",
          "type": "uint256"
        }
      ],
      "name": "withdrawEther",
      "outputs": [],
      "payable": false,
      "stateMutability": "nonpayable",
      "type": "function"
    },
    {
      "constant": true,
      "inputs": [],
      "name": "getEthBalanceInWei",
      "outputs": [
        {
          "name": "",
          "type": "uint256"
        }
      ],
      "payable": false,
      "stateMutability": "view",
      "type": "function"
    },
    {
      "constant": false,
      "inputs": [
        {
          "name": "_symbolName",
          "type": "string"
        },
        {
          "name": "_erc20TokenAddress",
          "type": "address"
        }
      ],
      "name": "addToken",
      "outputs": [],
      "payable": false,
      "stateMutability": "nonpayable",
      "type": "function"
    },
    {
      "constant": true,
      "inputs": [
        {
          "name": "_symbolName",
          "type": "string"
        }
      ],
      "name": "hasToken",
      "outputs": [
        {
          "name": "",
          "type": "bool"
        }
      ],
      "payable": false,
      "stateMutability": "view",
      "type": "function"
    },
    {
      "constant": true,
      "inputs": [],
      "name": "getNumTokens",
      "outputs": [
        {
          "name": "",
          "type": "uint8"
        }
      ],
      "payable": false,
      "stateMutability": "view",
      "type": "function"
    },
    {
      "constant": true,
      "inputs": [
        {
          "name": "_symbolIndex",
          "type": "uint8"
        }
      ],
      "name": "getTokenInfoByIndex",
      "outputs": [
        {
          "name": "",
          "type": "string"
        },
        {
          "name": "",
          "type": "address"
        }
      ],
      "payable": false,
      "stateMutability": "view",
      "type": "function"
    },
    {
      "constant": false,
      "inputs": [
        {
          "name": "_symbolName",
          "type": "string"
        },
        {
          "name": "_amount",
          "type": "uint256"
        }
      ],
      "name": "depositToken",
      "outputs": [],
      "payable": false,
      "stateMutability": "nonpayable",
      "type": "function"
    },
    {
      "constant": false,
      "inputs": [
        {
          "name": "_symbolName",
          "type": "string"
        },
        {
          "name": "_amount",
          "type": "uint256"
        }
      ],
      "name": "withdrawToken",
      "outputs": [],
      "payable": false,
      "stateMutability": "nonpayable",
      "type": "function"
    },
    {
      "constant": true,
      "inputs": [
        {
          "name": "_symbolName",
          "type": "string"
        }
      ],
      "name": "getBalance",
      "outputs": [
        {
          "name": "",
          "type": "uint256"
        }
      ],
      "payable": false,
      "stateMutability": "view",
      "type": "function"
    },
    {
      "constant": true,
      "inputs": [
        {
          "name": "_symbolName",
          "type": "string"
        }
      ],
      "name": "getBuyOrderBook",
      "outputs": [
        {
          "name": "",
          "type": "uint256[]"
        },
        {
          "name": "",
          "type": "uint256[]"
        }
      ],
      "payable": false,
      "stateMutability": "view",
      "type": "function"
    },
    {
      "constant": true,
      "inputs": [
        {
          "name": "_symbolName",
          "type": "string"
        }
      ],
      "name": "getSellOrderBook",
      "outputs": [
        {
          "name": "",
          "type": "uint256[]"
        },
        {
          "name": "",
          "type": "uint256[]"
        }
      ],
      "payable": false,
      "stateMutability": "view",
      "type": "function"
    },
    {
      "constant": false,
      "inputs": [
        {
          "name": "_symbolName",
          "type": "string"
        },
        {
          "name": "_priceInWei",
          "type": "uint256"
        },
        {
          "name": "_amount",
          "type": "uint256"
        }
      ],
      "name": "buyToken",
      "outputs": [],
      "payable": false,
      "stateMutability": "nonpayable",
      "type": "function"
    },
    {
      "constant": false,
      "inputs": [
        {
          "name": "_symbolName",
          "type": "string"
        },
        {
          "name": "_priceInWei",
          "type": "uint256"
        },
        {
          "name": "_amount",
          "type": "uint256"
        }
      ],
      "name": "sellToken",
      "outputs": [],
      "payable": false,
      "stateMutability": "nonpayable",
      "type": "function"
    },
    {
      "constant": false,
      "inputs": [
        {
          "name": "_symbolName",
          "type": "string"
        },
        {
          "name": "_isSellOrder",
          "type": "bool"
        },
        {
          "name": "_priceInWei",
          "type": "uint256"
        },
        {
          "name": "_offerKey",
          "type": "uint256"
        }
      ],
      "name": "cancelOrder",
      "outputs": [],
      "payable": false,
      "stateMutability": "nonpayable",
      "type": "function"
    }
  ],
  "bytecode": "0x6060604052336000806101000a81548173ffffffffffffffffffffffffffffffffffffffff021916908373ffffffffffffffffffffffffffffffffffffffff160217905550613822806100536000396000f300606060405260043610610107576000357c0100000000000000000000000000000000000000000000000000000000900463ffffffff16806303bc4a271461010c5780631a8eb72b1461020657806333ad57e41461022f5780633a51d246146102955780633bed33ce146103065780633dedf846146103295780635ab8ea33146103fb578063728ff0291461046a57806379ba509714610564578063851030fe146105795780638da5cb5b146105e85780638ea008181461063d57806398ea5fca146106b2578063b0b22c2c146106bc578063c97a413a14610738578063cd2ed8fb1461079e578063d1a3b025146107cd578063d4ee1d9014610847578063f2fde38b1461089c575b600080fd5b341561011757600080fd5b610167600480803590602001908201803590602001908080601f016020809104026020016040519081016040528093929190818152602001838380828437820191505050505050919050506108d5565b604051808060200180602001838103835285818151815260200191508051906020019060200280838360005b838110156101ae578082015181840152602081019050610193565b50505050905001838103825284818151815260200191508051906020019060200280838360005b838110156101f05780820151818401526020810190506101d5565b5050505090500194505050505060405180910390f35b341561021157600080fd5b610219610920565b6040518082815260200191505060405180910390f35b341561023a57600080fd5b610293600480803590602001908201803590602001908080601f01602080910402602001604051908101604052809392919081815260200183838082843782019150505050505091908035906020019091905050610967565b005b34156102a057600080fd5b6102f0600480803590602001908201803590602001908080601f01602080910402602001604051908101604052809392919081815260200183838082843782019150505050505091905050610d0d565b6040518082815260200191505060405180910390f35b341561031157600080fd5b6103276004808035906020019091905050610d8d565b005b341561033457600080fd5b61034d600480803560ff16906020019091905050610f0c565b60405180806020018373ffffffffffffffffffffffffffffffffffffffff1673ffffffffffffffffffffffffffffffffffffffff168152602001828103825284818151815260200191508051906020019080838360005b838110156103bf5780820151818401526020810190506103a4565b50505050905090810190601f1680156103ec5780820380516001836020036101000a031916815260200191505b50935050505060405180910390f35b341561040657600080fd5b610468600480803590602001908201803590602001908080601f01602080910402602001604051908101604052809392919081815260200183838082843782019150505050505091908035906020019091908035906020019091905050611038565b005b341561047557600080fd5b6104c5600480803590602001908201803590602001908080601f01602080910402602001604051908101604052809392919081815260200183838082843782019150505050505091905050611283565b604051808060200180602001838103835285818151815260200191508051906020019060200280838360005b8381101561050c5780820151818401526020810190506104f1565b50505050905001838103825284818151815260200191508051906020019060200280838360005b8381101561054e578082015181840152602081019050610533565b5050505090500194505050505060405180910390f35b341561056f57600080fd5b6105776112ce565b005b341561058457600080fd5b6105e6600480803590602001908201803590602001908080601f0160208091040260200160405190810160405280939291908181526020018383808284378201915050505050509190803590602001909190803590602001909190505061146d565b005b34156105f357600080fd5b6105fb6116e6565b604051808273ffffffffffffffffffffffffffffffffffffffff1673ffffffffffffffffffffffffffffffffffffffff16815260200191505060405180910390f35b341561064857600080fd5b610698600480803590602001908201803590602001908080601f0160208091040260200160405190810160405280939291908181526020018383808284378201915050505050509190505061170b565b604051808215151515815260200191505060405180910390f35b6106ba611739565b005b34156106c757600080fd5b610736600480803590602001908201803590602001908080601f0160208091040260200160405190810160405280939291908181526020018383808284378201915050505050509190803573ffffffffffffffffffffffffffffffffffffffff16906020019091905050611826565b005b341561074357600080fd5b61079c600480803590602001908201803590602001908080601f01602080910402602001604051908101604052809392919081815260200183838082843782019150505050505091908035906020019091905050611a69565b005b34156107a957600080fd5b6107b1611cf9565b604051808260ff1660ff16815260200191505060405180910390f35b34156107d857600080fd5b610845600480803590602001908201803590602001908080601f016020809104026020016040519081016040528093929190818152602001838380828437820191505050505050919080351515906020019091908035906020019091908035906020019091905050611d10565b005b341561085257600080fd5b61085a612153565b604051808273ffffffffffffffffffffffffffffffffffffffff1673ffffffffffffffffffffffffffffffffffffffff16815260200191505060405180910390f35b34156108a757600080fd5b6108d3600480803573ffffffffffffffffffffffffffffffffffffffff16906020019091905050612179565b005b6108dd613715565b6108e5613715565b60006108f084612218565b9050610916600260008360ff1660ff168152602001908152602001600020600201612242565b9250925050915091565b6000600560003373ffffffffffffffffffffffffffffffffffffffff1673ffffffffffffffffffffffffffffffffffffffff16815260200190815260200160002054905090565b6000806000610975856123d7565b925060008360ff161415151561098a57600080fd5b600260008460ff1660ff16815260200190815260200160002060000160009054906101000a900473ffffffffffffffffffffffffffffffffffffffff169150600073ffffffffffffffffffffffffffffffffffffffff168273ffffffffffffffffffffffffffffffffffffffff1614151515610a0557600080fd5b819050838173ffffffffffffffffffffffffffffffffffffffff1663dd62ed3e33306040518363ffffffff167c0100000000000000000000000000000000000000000000000000000000028152600401808373ffffffffffffffffffffffffffffffffffffffff1673ffffffffffffffffffffffffffffffffffffffff1681526020018273ffffffffffffffffffffffffffffffffffffffff1673ffffffffffffffffffffffffffffffffffffffff16815260200192505050602060405180830381600087803b1515610ad757600080fd5b5af11515610ae457600080fd5b5050506040518051905010151515610afb57600080fd5b8073ffffffffffffffffffffffffffffffffffffffff166323b872dd3330876040518463ffffffff167c0100000000000000000000000000000000000000000000000000000000028152600401808473ffffffffffffffffffffffffffffffffffffffff1673ffffffffffffffffffffffffffffffffffffffff1681526020018373ffffffffffffffffffffffffffffffffffffffff1673ffffffffffffffffffffffffffffffffffffffff1681526020018281526020019350505050602060405180830381600087803b1515610bd157600080fd5b5af11515610bde57600080fd5b5050506040518051905050610c5284600460003373ffffffffffffffffffffffffffffffffffffffff1673ffffffffffffffffffffffffffffffffffffffff16815260200190815260200160002060008660ff1660ff1681526020019081526020016000205461244790919063ffffffff16565b600460003373ffffffffffffffffffffffffffffffffffffffff1673ffffffffffffffffffffffffffffffffffffffff16815260200190815260200160002060008560ff1660ff168152602001908152602001600020819055508260ff163373ffffffffffffffffffffffffffffffffffffffff167fc0aa5496c7b01c4b317a58e270b45f383bcd6ae57f9e5124db9c0674b77764998642604051808381526020018281526020019250505060405180910390a35050505050565b600080610d19836123d7565b905060008160ff1614151515610d2e57600080fd5b600460003373ffffffffffffffffffffffffffffffffffffffff1673ffffffffffffffffffffffffffffffffffffffff16815260200190815260200160002060008260ff1660ff16815260200190815260200160002054915050919050565b600081600560003373ffffffffffffffffffffffffffffffffffffffff1673ffffffffffffffffffffffffffffffffffffffff168152602001908152602001600020540310151515610dde57600080fd5b610e3081600560003373ffffffffffffffffffffffffffffffffffffffff1673ffffffffffffffffffffffffffffffffffffffff1681526020019081526020016000205461246590919063ffffffff16565b600560003373ffffffffffffffffffffffffffffffffffffffff1673ffffffffffffffffffffffffffffffffffffffff168152602001908152602001600020819055503373ffffffffffffffffffffffffffffffffffffffff166108fc829081150290604051600060405180830381858888f193505050501515610eb357600080fd5b3373ffffffffffffffffffffffffffffffffffffffff167fac9513adf40097763b4664bee3693d0f051127c5ac55e33f68926c1612ac59958242604051808381526020018281526020019250505060405180910390a250565b610f14613729565b6000600360009054906101000a900460ff1660ff168360ff1611151515610f3a57600080fd5b600260008460ff1660ff168152602001908152602001600020600101600260008560ff1660ff16815260200190815260200160002060000160009054906101000a900473ffffffffffffffffffffffffffffffffffffffff16818054600181600116156101000203166002900480601f0160208091040260200160405190810160405280929190818152602001828054600181600116156101000203166002900480156110285780601f10610ffd57610100808354040283529160200191611028565b820191906000526020600020905b81548152906001019060200180831161100b57829003601f168201915b5050505050915091509150915091565b60008060008061104787612218565b935061105c858761247e90919063ffffffff16565b925082600560003373ffffffffffffffffffffffffffffffffffffffff1673ffffffffffffffffffffffffffffffffffffffff16815260200190815260200160002054101515156110ac57600080fd5b6110fe83600560003373ffffffffffffffffffffffffffffffffffffffff1673ffffffffffffffffffffffffffffffffffffffff1681526020019081526020016000205461246590919063ffffffff16565b600560003373ffffffffffffffffffffffffffffffffffffffff1673ffffffffffffffffffffffffffffffffffffffff168152602001908152602001600020819055506000600260008660ff1660ff16815260200190815260200160002060060160030154148061118d5750600260008560ff1660ff1681526020019081526020016000206006016001015486105b15611256576111b9600260008660ff1660ff1681526020019081526020016000206002018787336124b9565b600260008560ff1660ff16815260200190815260200160002060020160000160008781526020019081526020016000206004015491503373ffffffffffffffffffffffffffffffffffffffff168460ff167f2ef51fa215957689865f55575d7d89840bee8fce54b23ef826fea1a304acdd3f87898660405180848152602001838152602001828152602001935050505060405180910390a361127a565b61126284878733612637565b9050600081111561127957611278878783611038565b5b5b50505050505050565b61128b613715565b611293613715565b600061129e84612218565b90506112c4600260008360ff1660ff168152602001908152602001600020600601612242565b9250925050915091565b600160009054906101000a900473ffffffffffffffffffffffffffffffffffffffff1673ffffffffffffffffffffffffffffffffffffffff163373ffffffffffffffffffffffffffffffffffffffff1614151561132a57600080fd5b600160009054906101000a900473ffffffffffffffffffffffffffffffffffffffff1673ffffffffffffffffffffffffffffffffffffffff166000809054906101000a900473ffffffffffffffffffffffffffffffffffffffff1673ffffffffffffffffffffffffffffffffffffffff167f8be0079c531659141344cd1fd0a4f28419497f9722a3daafe3b4186f6b6457e060405160405180910390a3600160009054906101000a900473ffffffffffffffffffffffffffffffffffffffff166000806101000a81548173ffffffffffffffffffffffffffffffffffffffff021916908373ffffffffffffffffffffffffffffffffffffffff1602179055506000600160006101000a81548173ffffffffffffffffffffffffffffffffffffffff021916908373ffffffffffffffffffffffffffffffffffffffff160217905550565b600080600061147b86612218565b925083600460003373ffffffffffffffffffffffffffffffffffffffff1673ffffffffffffffffffffffffffffffffffffffff16815260200190815260200160002060008560ff1660ff16815260200190815260200160002054101515156114e257600080fd5b61154b84600460003373ffffffffffffffffffffffffffffffffffffffff1673ffffffffffffffffffffffffffffffffffffffff16815260200190815260200160002060008660ff1660ff1681526020019081526020016000205461246590919063ffffffff16565b600460003373ffffffffffffffffffffffffffffffffffffffff1673ffffffffffffffffffffffffffffffffffffffff16815260200190815260200160002060008560ff1660ff168152602001908152602001600020819055506000600260008560ff1660ff1681526020019081526020016000206002016003015414806115f15750600260008460ff1660ff1681526020019081526020016000206002016002015485115b156116ba5761161d600260008560ff1660ff1681526020019081526020016000206006018686336124b9565b600260008460ff1660ff16815260200190815260200160002060060160000160008681526020019081526020016000206004015491503373ffffffffffffffffffffffffffffffffffffffff168360ff167fc7d136f10bcb424de2ff60d5473d863ed2fdcd5d352e045d89ee9581f54f6afb86888660405180848152602001838152602001828152602001935050505060405180910390a36116de565b6116c683868633612bfd565b905060008111156116dd576116dc86868361146d565b5b5b505050505050565b6000809054906101000a900473ffffffffffffffffffffffffffffffffffffffff1681565b600080611717836123d7565b905060008160ff16141561172e5760009150611733565b600191505b50919050565b61178b34600560003373ffffffffffffffffffffffffffffffffffffffff1673ffffffffffffffffffffffffffffffffffffffff1681526020019081526020016000205461244790919063ffffffff16565b600560003373ffffffffffffffffffffffffffffffffffffffff1673ffffffffffffffffffffffffffffffffffffffff168152602001908152602001600020819055503373ffffffffffffffffffffffffffffffffffffffff167f42dbebeb8f6fb795e3007753aef2d4b1a292dd123f6de06a41050186741506373442604051808381526020018281526020019250505060405180910390a2565b60008060009054906101000a900473ffffffffffffffffffffffffffffffffffffffff1673ffffffffffffffffffffffffffffffffffffffff163373ffffffffffffffffffffffffffffffffffffffff1614151561188357600080fd5b61188c8361170b565b15151561189857600080fd5b600360009054906101000a900460ff1690506003600081819054906101000a900460ff168092919060010191906101000a81548160ff021916908360ff160217905550508060ff16600360009054906101000a900460ff1660ff161115156118fc57fe5b8260026000600360009054906101000a900460ff1660ff1660ff168152602001908152602001600020600101908051906020019061193b92919061373d565b508160026000600360009054906101000a900460ff1660ff1660ff16815260200190815260200160002060000160006101000a81548173ffffffffffffffffffffffffffffffffffffffff021916908373ffffffffffffffffffffffffffffffffffffffff1602179055507f6c71eb76d5d82031f490d3e44dc01d298444e569078199b14510435d81b59ff7600360009054906101000a900460ff168442604051808460ff16815260200180602001838152602001828103825284818151815260200191508051906020019080838360005b83811015611a28578082015181840152602081019050611a0d565b50505050905090810190601f168015611a555780820380516001836020036101000a031916815260200191505b5094505050505060405180910390a1505050565b6000806000611a77856123d7565b925060008360ff1614151515611a8c57600080fd5b600260008460ff1660ff16815260200190815260200160002060000160009054906101000a900473ffffffffffffffffffffffffffffffffffffffff169150600073ffffffffffffffffffffffffffffffffffffffff168273ffffffffffffffffffffffffffffffffffffffff1614151515611b0757600080fd5b819050611b7384600460003373ffffffffffffffffffffffffffffffffffffffff1673ffffffffffffffffffffffffffffffffffffffff16815260200190815260200160002060008660ff1660ff1681526020019081526020016000205461246590919063ffffffff16565b600460003373ffffffffffffffffffffffffffffffffffffffff1673ffffffffffffffffffffffffffffffffffffffff16815260200190815260200160002060008560ff1660ff16815260200190815260200160002081905550600115158173ffffffffffffffffffffffffffffffffffffffff1663a9059cbb33876040518363ffffffff167c0100000000000000000000000000000000000000000000000000000000028152600401808373ffffffffffffffffffffffffffffffffffffffff1673ffffffffffffffffffffffffffffffffffffffff16815260200182815260200192505050602060405180830381600087803b1515611c7357600080fd5b5af11515611c8057600080fd5b505050604051805190501515141515611c9857600080fd5b8260ff163373ffffffffffffffffffffffffffffffffffffffff167faed5c5198ccd7615c0128c72fcfc060e97b14315cb791a46bf42b5b6f36c38b98642604051808381526020018281526020019250505060405180910390a35050505050565b6000600360009054906101000a900460ff16905090565b6000806000611d1e87612218565b92508515611f69573373ffffffffffffffffffffffffffffffffffffffff16600260008560ff1660ff1681526020019081526020016000206006016000016000878152602001908152602001600020600201600086815260200190815260200160002060010160009054906101000a900473ffffffffffffffffffffffffffffffffffffffff1673ffffffffffffffffffffffffffffffffffffffff16141515611dc757600080fd5b600260008460ff1660ff16815260200190815260200160002060060160000160008681526020019081526020016000206002016000858152602001908152602001600020600001549150611e7a82600460003373ffffffffffffffffffffffffffffffffffffffff1673ffffffffffffffffffffffffffffffffffffffff16815260200190815260200160002060008660ff1660ff1681526020019081526020016000205461244790919063ffffffff16565b600460003373ffffffffffffffffffffffffffffffffffffffff1673ffffffffffffffffffffffffffffffffffffffff16815260200190815260200160002060008560ff1660ff168152602001908152602001600020819055506000600260008560ff1660ff16815260200190815260200160002060060160000160008781526020019081526020016000206002016000868152602001908152602001600020600001819055508260ff167fffac5f4941e92bc6814610a825eeff0ae9bb4a17d47c0e2353c6889b2b550fb88686604051808381526020018281526020019250505060405180910390a261214a565b3373ffffffffffffffffffffffffffffffffffffffff16600260008560ff1660ff1681526020019081526020016000206002016000016000878152602001908152602001600020600201600086815260200190815260200160002060010160009054906101000a900473ffffffffffffffffffffffffffffffffffffffff1673ffffffffffffffffffffffffffffffffffffffff1614151561200a57600080fd5b61206485600260008660ff1660ff168152602001908152602001600020600201600001600088815260200190815260200160002060020160008781526020019081526020016000206000015461247e90919063ffffffff16565b90506000600260008560ff1660ff168152602001908152602001600020600201600001600087815260200190815260200160002060020160008681526020019081526020016000206000018190555061210581600560003373ffffffffffffffffffffffffffffffffffffffff1673ffffffffffffffffffffffffffffffffffffffff1681526020019081526020016000205461244790919063ffffffff16565b508260ff167f5f2fdca15d8ab2ad3f590066add3054471b3603ca44a66f12e124e9c97ec19558686604051808381526020018281526020019250505060405180910390a25b50505050505050565b600160009054906101000a900473ffffffffffffffffffffffffffffffffffffffff1681565b6000809054906101000a900473ffffffffffffffffffffffffffffffffffffffff1673ffffffffffffffffffffffffffffffffffffffff163373ffffffffffffffffffffffffffffffffffffffff161415156121d457600080fd5b80600160006101000a81548173ffffffffffffffffffffffffffffffffffffffff021916908373ffffffffffffffffffffffffffffffffffffffff16021790555050565b600080612224836123d7565b905060008160ff161415151561223957600080fd5b80915050919050565b61224a613715565b612252613715565b61225a613715565b612262613715565b6000806000806000808a6003015460405180591061227d5750595b908082528060200260200182016040525097508a600301546040518059106122a25750595b908082528060200260200182016040525096508a600101549550600094505b8a600301548510156123c4578588868151811015156122dc57fe5b9060200190602002018181525050600093508a60000160008781526020019081526020016000206003015492508a60000160008781526020019081526020016000206004015491508290505b818111151561237f576123708b60000160008881526020019081526020016000206002016000838152602001908152602001600020600001548561244790919063ffffffff16565b93508080600101915050612328565b83878681518110151561238e57fe5b90602001906020020181815250508a600001600087815260200190815260200160002060010154955084806001019550506122c1565b8787995099505050505050505050915091565b600080600190505b600360009054906101000a900460ff1660ff168160ff1611151561243c57612422600260008360ff1660ff168152602001908152602001600020600101846131c3565b1561242f57809150612441565b80806001019150506123df565b600091505b50919050565b600080828401905083811015151561245b57fe5b8091505092915050565b600082821115151561247357fe5b818303905092915050565b600080600084141561249357600091506124b2565b82840290508284828115156124a457fe5b041415156124ae57fe5b8091505b5092915050565b60006124e760018660000160008781526020019081526020016000206004015461244790919063ffffffff16565b8560000160008681526020019081526020016000206004018190555060408051908101604052808481526020018373ffffffffffffffffffffffffffffffffffffffff1681525085600001600086815260200190815260200160002060020160008760000160008881526020019081526020016000206004015481526020019081526020016000206000820151816000015560208201518160010160006101000a81548173ffffffffffffffffffffffffffffffffffffffff021916908373ffffffffffffffffffffffffffffffffffffffff16021790555090505084600001600085815260200190815260200160002060040154905060018114156126305760018560000160008681526020019081526020016000206003018190555061261d6001866003015461244790919063ffffffff16565b856003018190555061262f858561334c565b5b5050505050565b600080600080600080600080899650600260008d60ff1660ff168152602001908152602001600020600601955085600101549450600093505b8560030154841015612bea578560000160008681526020019081526020016000206003015492505b8560000160008681526020019081526020016000206004015483111515612bc2578560000160008681526020019081526020016000206002016000848152602001908152602001600020600001549150856000016000868152602001908152602001600020600201600084815260200190815260200160002060010160009054906101000a900473ffffffffffffffffffffffffffffffffffffffff169050600087101515612bb55786821115156129765760008660000160008781526020019081526020016000206002016000858152602001908152602001600020600001819055506127e0612792868461247e90919063ffffffff16565b600560008473ffffffffffffffffffffffffffffffffffffffff1673ffffffffffffffffffffffffffffffffffffffff1681526020019081526020016000205461244790919063ffffffff16565b600560008373ffffffffffffffffffffffffffffffffffffffff1673ffffffffffffffffffffffffffffffffffffffff1681526020019081526020016000208190555061288c82600460003373ffffffffffffffffffffffffffffffffffffffff1673ffffffffffffffffffffffffffffffffffffffff16815260200190815260200160002060008f60ff1660ff1681526020019081526020016000205461244790919063ffffffff16565b600460003373ffffffffffffffffffffffffffffffffffffffff1673ffffffffffffffffffffffffffffffffffffffff16815260200190815260200160002060008e60ff1660ff168152602001908152602001600020819055506128f9828861246590919063ffffffff16565b96508560000160008681526020019081526020016000206004015483141561292657612925868661359c565b5b8b60ff167fcbfa5edcd918ef1ec42746c71ac83c456f37330c83a22e44d6cfdca22d56471083878660405180848152602001838152602001828152602001935050505060405180910390a2612bb4565b868211151561298457600080fd5b6129c38787600001600088815260200190815260200160002060020160008681526020019081526020016000206000015461246590919063ffffffff16565b866000016000878152602001908152602001600020600201600085815260200190815260200160002060000181905550612a57612a09868461247e90919063ffffffff16565b600560003373ffffffffffffffffffffffffffffffffffffffff1673ffffffffffffffffffffffffffffffffffffffff1681526020019081526020016000205461244790919063ffffffff16565b600560003373ffffffffffffffffffffffffffffffffffffffff1673ffffffffffffffffffffffffffffffffffffffff16815260200190815260200160002081905550612b0387600460008473ffffffffffffffffffffffffffffffffffffffff1673ffffffffffffffffffffffffffffffffffffffff16815260200190815260200160002060008f60ff1660ff1681526020019081526020016000205461244790919063ffffffff16565b600460008373ffffffffffffffffffffffffffffffffffffffff1673ffffffffffffffffffffffffffffffffffffffff16815260200190815260200160002060008e60ff1660ff16815260200190815260200160002081905550600096508b60ff167fcbfa5edcd918ef1ec42746c71ac83c456f37330c83a22e44d6cfdca22d56471088878660405180848152602001838152602001828152602001935050505060405180910390a2869750612bee565b5b8280600101935050612698565b8560000160008681526020019081526020016000206001015494508380600101945050612670565b8697505b50505050505050949350505050565b600080600080600080600080899650600260008d60ff1660ff168152602001908152602001600020600201955085600201549450600093505b85600301548410156131b0578560000160008681526020019081526020016000206003015492505b8560000160008681526020019081526020016000206004015483111515613188578560000160008681526020019081526020016000206002016000848152602001908152602001600020600001549150856000016000868152602001908152602001600020600201600084815260200190815260200160002060010160009054906101000a900473ffffffffffffffffffffffffffffffffffffffff16905060008710151561317b578682111515612f3c576000866000016000878152602001908152602001600020600201600085815260200190815260200160002060000181905550612da6612d58868461247e90919063ffffffff16565b600560003373ffffffffffffffffffffffffffffffffffffffff1673ffffffffffffffffffffffffffffffffffffffff1681526020019081526020016000205461244790919063ffffffff16565b600560003373ffffffffffffffffffffffffffffffffffffffff1673ffffffffffffffffffffffffffffffffffffffff16815260200190815260200160002081905550612e5282600460008473ffffffffffffffffffffffffffffffffffffffff1673ffffffffffffffffffffffffffffffffffffffff16815260200190815260200160002060008f60ff1660ff1681526020019081526020016000205461244790919063ffffffff16565b600460008373ffffffffffffffffffffffffffffffffffffffff1673ffffffffffffffffffffffffffffffffffffffff16815260200190815260200160002060008e60ff1660ff16815260200190815260200160002081905550612ebf828861246590919063ffffffff16565b965085600001600086815260200190815260200160002060040154831415612eec57612eeb868661359c565b5b8b60ff167fcbfa5edcd918ef1ec42746c71ac83c456f37330c83a22e44d6cfdca22d56471083878660405180848152602001838152602001828152602001935050505060405180910390a261317a565b8682111515612f4a57600080fd5b612f898787600001600088815260200190815260200160002060020160008681526020019081526020016000206000015461246590919063ffffffff16565b86600001600087815260200190815260200160002060020160008581526020019081526020016000206000018190555061301d612fcf868461247e90919063ffffffff16565b600560003373ffffffffffffffffffffffffffffffffffffffff1673ffffffffffffffffffffffffffffffffffffffff1681526020019081526020016000205461244790919063ffffffff16565b600560003373ffffffffffffffffffffffffffffffffffffffff1673ffffffffffffffffffffffffffffffffffffffff168152602001908152602001600020819055506130c987600460008473ffffffffffffffffffffffffffffffffffffffff1673ffffffffffffffffffffffffffffffffffffffff16815260200190815260200160002060008f60ff1660ff1681526020019081526020016000205461244790919063ffffffff16565b600460008373ffffffffffffffffffffffffffffffffffffffff1673ffffffffffffffffffffffffffffffffffffffff16815260200190815260200160002060008e60ff1660ff16815260200190815260200160002081905550600096508b60ff167fcbfa5edcd918ef1ec42746c71ac83c456f37330c83a22e44d6cfdca22d56471088878660405180848152602001838152602001828152602001935050505060405180910390a28697506131b4565b5b8280600101935050612c5e565b8560000160008681526020019081526020016000206000015494508380600101945050612c36565b8697505b50505050505050949350505050565b6000806131ce6137bd565b60008592508491508151838054600181600116156101000203166002900490501415156131fe5760009350613343565b600090505b8280546001816001161561010002031660029004905081101561333e57818181518110151561322e57fe5b9060200101517f010000000000000000000000000000000000000000000000000000000000000090047f0100000000000000000000000000000000000000000000000000000000000000027effffffffffffffffffffffffffffffffffffffffffffffffffffffffffffff1916838281546001816001161561010002031660029004811015156132ba57fe5b8154600116156132d95790600052602060002090602091828204019190065b9054901a7f0100000000000000000000000000000000000000000000000000000000000000027effffffffffffffffffffffffffffffffffffffffffffffffffffffffffffff19161415156133315760009350613343565b8080600101915050613203565b600193505b50505092915050565b600080600080856002015493508560010154925060008314156133bb576000866000016000878152602001908152602001600020600001819055508486600001600087815260200190815260200160002060010181905550848660010181905550848660020181905550613594565b8285101561340b5784866000016000858152602001908152602001600020600001819055508286600001600087815260200190815260200160002060010181905550848660010181905550613593565b8385111561347857848660000160008681526020019081526020016000206001018190555084866000016000878152602001908152602001600020600101819055508386600001600087815260200190815260200160002060000181905550848660020181905550613592565b85600201549150600090505b600082118015613498575060001515811515145b156135915781851180156134c357508560000160008381526020019081526020016000206001015485105b15613571578560000160008381526020019081526020016000206001015486600001600087815260200190815260200160002060010181905550818660000160008781526020019081526020016000206000018190555084866000016000886000016000868152602001908152602001600020600101548152602001908152602001600020600001819055508486600001600084815260200190815260200160002060010181905550600190505b856000016000838152602001908152602001600020600001549150613484565b5b5b5b505050505050565b6000808360000160008481526020019081526020016000206000015491508360000160008481526020019081526020016000206001015490506001846003015414156135fb5760008460010181905550600084600201819055506136ef565b83600201548314156136325781846000016000848152602001908152602001600020600101819055508184600201819055506136ee565b8360010154831415613682576000846000016000838152602001908152602001600020600001819055508360000160008481526020019081526020016000206001015484600101819055506136ed565b836000016000848152602001908152602001600020600101548460000160008481526020019081526020016000206001018190555083600001600084815260200190815260200160002060000154846000016000838152602001908152602001600020600001819055505b5b5b6137076001856003015461246590919063ffffffff16565b846003018190555050505050565b602060405190810160405280600081525090565b602060405190810160405280600081525090565b828054600181600116156101000203166002900490600052602060002090601f016020900481019282601f1061377e57805160ff19168380011785556137ac565b828001600101855582156137ac579182015b828111156137ab578251825591602001919060010190613790565b5b5090506137b991906137d1565b5090565b602060405190810160405280600081525090565b6137f391905b808211156137ef5760008160009055506001016137d7565b5090565b905600a165627a7a723058205b0030e31d993df18759cfcba2410655fa005baefe73b2d21491c80701bde4e10029",
  "source": "pragma solidity ^0.4.21;\n\nimport \"./Owned.sol\";\nimport \"./ERC20Interface.sol\";\nimport \"./FixedSupplyToken.sol\";\nimport \"./OrderBookManager.sol\";\n\ncontract Exchange is Owned, OrderBookManager {\n    \n    using SafeMath for uint;\n\n    struct Token {\n        \n        address tokenContract;\n\n        string symbolName;\n        \n        OrderBook buyBook;\n        OrderBook sellBook;\n\n    }\n    \n    //we support a max of 255 tokens...\n    mapping (uint8 => Token) tokens;\n    uint8 tokensSize;\n\n\n    //////////////\n    // BALANCES //\n    //////////////\n    mapping (address => mapping (uint8 => uint)) tokenBalanceForAddress;\n\n    mapping (address => uint) balanceEthForAddress;\n\n\n\n\n    ////////////\n    // EVENTS //\n    ////////////\n\n    //Deposit/withdrawal\n    event DepositForTokenReceived(address indexed _from, uint indexed _symbolIndex, uint _amount, uint _timestamp);\n    event WithdrawalToken(address indexed _to, uint indexed _symbolIndex, uint _amount, uint _timestamp);\n    event DepositForEthReceived(address indexed _from, uint _amount, uint _timestamp);\n    event WithdrawalEth(address indexed _to, uint _amount, uint _timestamp);\n    \n    //Exchange Orders\n    event LimitSellOrderCreated(uint indexed _symbolIndex, address indexed _who, uint _amountTokens, uint _priceInWei, uint _orderKey);\n    event SellOrderFulfilled(uint indexed _symbolIndex, uint _amount, uint _priceInWei, uint _orderKey);\n    event SellOrderCanceled(uint indexed _symbolIndex, uint _priceInWei, uint _orderKey);\n    event LimitBuyOrderCreated(uint indexed _symbolIndex, address indexed _who, uint _amountTokens, uint _priceInWei, uint _orderKey);\n    event BuyOrderFulfilled(uint indexed _symbolIndex, uint _amount, uint _priceInWei, uint _orderKey);\n    event BuyOrderCanceled(uint indexed _symbolIndex, uint _priceInWei, uint _orderKey);\n\n    //Management\n    event TokenAddedToSystem(uint _symbolIndex, string _token, uint _timestamp);\n\n\n    //////////////////////////////////\n    // DEPOSIT AND WITHDRAWAL ETHER //\n    //////////////////////////////////\n    \n    //Underflow and Overflow checks are handled by SafeMath\n    function depositEther() payable public{\n        balanceEthForAddress[msg.sender] = balanceEthForAddress[msg.sender].add(msg.value);\n\n        emit DepositForEthReceived(msg.sender, msg.value, now);\n    }\n\n    function withdrawEther(uint _amountInWei) public {\n        require(balanceEthForAddress[msg.sender] - _amountInWei >= 0);\n\n        balanceEthForAddress[msg.sender] = balanceEthForAddress[msg.sender].sub(_amountInWei);\n        msg.sender.transfer(_amountInWei);\n\n        emit WithdrawalEth(msg.sender, _amountInWei, now);\n    }\n\n    function getEthBalanceInWei() constant public returns (uint){\n        return balanceEthForAddress[msg.sender];\n    }\n\n\n    //////////////////////\n    // TOKEN MANAGEMENT //\n    //////////////////////\n\n    function addToken(string _symbolName, address _erc20TokenAddress) public onlyOwner {\n        require(!hasToken(_symbolName));\n        \n        uint8 preIncrement = tokensSize;\n        tokensSize++;\n        \n        assert(tokensSize > preIncrement);\n        \n        tokens[tokensSize].symbolName = _symbolName;\n        tokens[tokensSize].tokenContract = _erc20TokenAddress;\n        \n        emit TokenAddedToSystem(tokensSize, _symbolName, now);\n    }\n\n    function hasToken(string _symbolName) constant public returns (bool) {\n        uint8 index = _getSymbolIndex(_symbolName);\n        if (index == 0) {\n            return false;\n        }\n        return true;\n    }\n\n    function _getSymbolIndex(string _symbolName) internal returns (uint8) {\n        for (uint8 i = 1; i <= tokensSize; i++) {\n            if (stringsEqual(tokens[i].symbolName, _symbolName)) {\n                return i;\n            }\n        }\n        return 0;\n    }\n    \n    function _getSymbolIndexOrThrow(string _symbolName) internal returns (uint8) {\n        uint8 index = _getSymbolIndex(_symbolName);\n        \n        require(index != 0);\n        return index;\n    }\n    \n    function getNumTokens() public view returns (uint8) {\n        return tokensSize;\n    } \n\n    function getTokenInfoByIndex(uint8 _symbolIndex) public view returns (string, address) {\n        require(_symbolIndex <= tokensSize);\n        return (\n            tokens[_symbolIndex].symbolName,\n            tokens[_symbolIndex].tokenContract\n            );\n    }\n\n    //////////////////////////////////\n    // DEPOSIT AND WITHDRAWAL TOKEN //\n    //////////////////////////////////\n    function depositToken(string _symbolName, uint _amount) public {\n        \n        uint8 symbolIndex = _getSymbolIndex(_symbolName);\n        require(symbolIndex != 0);\n        \n        address tokenAddress = tokens[symbolIndex].tokenContract;\n        //Input validation: null check on token address        \n        require(tokenAddress != address(0));\n        \n        ERC20Interface token = ERC20Interface(tokenAddress);\n\n        //Ensure that the user has approved us to transfer tokens\n        require(token.allowance(msg.sender, address(this)) >= _amount);\n        \n        //How to we determine success?\n        token.transferFrom(msg.sender, address(this), _amount);\n        \n        tokenBalanceForAddress[msg.sender][symbolIndex] = tokenBalanceForAddress[msg.sender][symbolIndex].add(_amount);\n        \n        emit DepositForTokenReceived(msg.sender, symbolIndex, _amount, now);\n    }\n\n    function withdrawToken(string _symbolName, uint _amount) public {\n        uint8 symbolIndex = _getSymbolIndex(_symbolName);\n        require(symbolIndex != 0);\n        \n        address tokenAddress = tokens[symbolIndex].tokenContract;\n        require(tokenAddress != address(0));\n        \n        ERC20Interface token = ERC20Interface(tokenAddress);\n    \n        tokenBalanceForAddress[msg.sender][symbolIndex] = tokenBalanceForAddress[msg.sender][symbolIndex].sub(_amount);\n        require(token.transfer(msg.sender, _amount) == true);\n        \n        emit WithdrawalToken(msg.sender, symbolIndex, _amount, now);\n    }\n\n    function getBalance(string _symbolName) constant public returns (uint) {\n        uint8 symbolIndex = _getSymbolIndex(_symbolName);\n        require(symbolIndex != 0);\n        \n        return tokenBalanceForAddress[msg.sender][symbolIndex];\n        \n    }\n\n    /////////////////////////////\n    // ORDER BOOK              //\n    /////////////////////////////\n    function getBuyOrderBook(string _symbolName) constant public returns (uint[], uint[]) {\n        uint8 symbolIndex = _getSymbolIndexOrThrow(_symbolName);\n        return getOrderBook(tokens[symbolIndex].buyBook);\n    }\n\n    function getSellOrderBook(string _symbolName) constant public returns (uint[], uint[]) {\n        uint8 symbolIndex = _getSymbolIndexOrThrow(_symbolName);\n        return getOrderBook(tokens[symbolIndex].sellBook);\n    }\n\n    ////////////////////////////\n    // NEW ORDER - BID ORDER //\n    ///////////////////////////\n    function buyToken(string _symbolName, uint _priceInWei, uint _amount) public {\n        uint8 symbolIndex = _getSymbolIndexOrThrow(_symbolName);\n        uint userEtherRequired = _priceInWei.mul(_amount);\n        \n        require(balanceEthForAddress[msg.sender] >= userEtherRequired);\n        \n        balanceEthForAddress[msg.sender] = balanceEthForAddress[msg.sender].sub(userEtherRequired);\n        \n        //If there are no sell offers at or below the bid price, create an offer\n        if (tokens[symbolIndex].sellBook.size == 0 || _priceInWei < tokens[symbolIndex].sellBook.lowestPrice) {\n            addOffer(tokens[symbolIndex].buyBook, _priceInWei, _amount, msg.sender);\n            \n            uint offersLength = tokens[symbolIndex].buyBook.prices[_priceInWei].offers_length;\n            emit LimitBuyOrderCreated(symbolIndex, msg.sender, _amount, _priceInWei, offersLength);\n        }\n        \n        //TODO\n        else {\n            uint volumeRequired = _fillSellOrders(symbolIndex, _priceInWei, _amount, msg.sender);\n            \n            //Remaining volume required becomes a limit order\n            if (volumeRequired > 0) {\n                buyToken(_symbolName, _priceInWei, volumeRequired);\n            }\n        }\n    }\n\n    ////////////////////////////\n    // NEW ORDER - ASK ORDER //\n    ///////////////////////////\n    function sellToken(string _symbolName, uint _priceInWei, uint _amount) public {\n        uint8 symbolIndex = _getSymbolIndexOrThrow(_symbolName);\n        \n        require(tokenBalanceForAddress[msg.sender][symbolIndex] >= _amount);\n        \n        tokenBalanceForAddress[msg.sender][symbolIndex] = tokenBalanceForAddress[msg.sender][symbolIndex].sub(_amount);\n        \n        uint offersLength;\n        \n        //Order can't be immediately filled\n        if (tokens[symbolIndex].buyBook.size == 0 || _priceInWei > tokens[symbolIndex].buyBook.highestPrice) {\n            \n            addOffer(tokens[symbolIndex].sellBook, _priceInWei, _amount, msg.sender);\n            \n            offersLength = tokens[symbolIndex].sellBook.prices[_priceInWei].offers_length;\n            emit LimitSellOrderCreated(symbolIndex, msg.sender, _amount, _priceInWei, offersLength);\n        }\n        \n        //Order can be immediately filled\n        else {\n            \n            uint volumeRequired = _fillBuyOrders(symbolIndex, _priceInWei, _amount, msg.sender);\n            \n            //Remaining volume required becomes a limit order\n            if (volumeRequired > 0) {\n                sellToken(_symbolName, _priceInWei, volumeRequired);\n            }\n        }\n    }\n\n    function _fillBuyOrders(uint8 tokenIndex, uint _priceInWei, uint _amount, address _who) internal returns (uint) {\n        \n            uint volumeRequired = _amount;\n            OrderBook storage buyBook = tokens[tokenIndex].buyBook;\n            uint currentPrice = buyBook.highestPrice;\n            \n            //For each OrderBook in BuyBook\n            for (uint i = 0; i < buyBook.size; i++) {\n\n                //For each Offer in OrderBook\n                for (uint j = buyBook.prices[currentPrice].offers_key; j <= buyBook.prices[currentPrice].offers_length; j++){\n                    \n                    uint offerVolume = buyBook.prices[currentPrice].offers[j].amount;\n                    address offerAddress = buyBook.prices[currentPrice].offers[j].who;\n                    \n                    if (volumeRequired >= 0) {\n                        \n                        if (offerVolume <= volumeRequired) {\n                                                    \n                            /* Clear out the offer amount, give eth to seller, give tokens to buyer */\n                            buyBook.prices[currentPrice].offers[j].amount = 0;\n                            balanceEthForAddress[msg.sender] = balanceEthForAddress[msg.sender].add(offerVolume.mul(currentPrice));\n                            tokenBalanceForAddress[offerAddress][tokenIndex] = tokenBalanceForAddress[offerAddress][tokenIndex].add(offerVolume);\n                            \n                            volumeRequired = volumeRequired.sub(offerVolume);\n                \n                            /*If we've zeroed out an OrderBook, update the list */\n                            if (j == buyBook.prices[currentPrice].offers_length) {\n                                removePriceBook(buyBook, currentPrice);\n                            }\n                \n                            emit SellOrderFulfilled(tokenIndex, offerVolume, currentPrice, j);\n                            \n                        }\n                        \n                        else {\n                            require(offerVolume > volumeRequired);                    \n                            buyBook.prices[currentPrice].offers[j].amount = buyBook.prices[currentPrice].offers[j].amount.sub(volumeRequired);\n                            balanceEthForAddress[msg.sender] = balanceEthForAddress[msg.sender].add(offerVolume.mul(currentPrice));\n                            tokenBalanceForAddress[offerAddress][tokenIndex] = tokenBalanceForAddress[offerAddress][tokenIndex].add(volumeRequired);\n                            \n                            volumeRequired = 0;\n                            emit SellOrderFulfilled(tokenIndex, volumeRequired, currentPrice, j);\n                            return volumeRequired;\n                        }\n                        \n                    }\n                    \n                }\n                \n                currentPrice = buyBook.prices[currentPrice].lowerPrice;\n            }\n            return volumeRequired;\n    }\n    \n    function _fillSellOrders(uint8 tokenIndex, uint _priceInWei, uint _amount, address _who) internal returns (uint) {\n        \n        uint volumeRequired = _amount;\n            OrderBook storage sellBook = tokens[tokenIndex].sellBook;\n            uint currentPrice = sellBook.lowestPrice;\n            \n            //For each OrderBook in BuyBook\n            for (uint i = 0; i < sellBook.size; i++) {\n\n                //For each Offer in OrderBook\n                for (uint j = sellBook.prices[currentPrice].offers_key; j <= sellBook.prices[currentPrice].offers_length; j++){\n                    \n                    uint offerVolume = sellBook.prices[currentPrice].offers[j].amount;\n                    address offerAddress = sellBook.prices[currentPrice].offers[j].who;\n                    \n                    if (volumeRequired >= 0) {\n                        \n                        if (offerVolume <= volumeRequired) {\n                                                    \n                            /* Clear out the offer amount, give eth to seller, give tokens to buyer */\n                            sellBook.prices[currentPrice].offers[j].amount = 0;\n                            \n                            balanceEthForAddress[offerAddress] = balanceEthForAddress[offerAddress].add(offerVolume.mul(currentPrice));\n                            tokenBalanceForAddress[msg.sender][tokenIndex] = tokenBalanceForAddress[msg.sender][tokenIndex].add(offerVolume);\n                            \n                            volumeRequired = volumeRequired.sub(offerVolume);\n                \n                            /*If we've zeroed out an OrderBook, update the list */\n                            if (j == sellBook.prices[currentPrice].offers_length) {\n                                removePriceBook(sellBook, currentPrice);\n                            }\n                \n                            emit SellOrderFulfilled(tokenIndex, offerVolume, currentPrice, j);\n                            \n                        }\n                        \n                        else {\n                            require(offerVolume > volumeRequired);                    \n                            sellBook.prices[currentPrice].offers[j].amount = sellBook.prices[currentPrice].offers[j].amount.sub(volumeRequired);\n                            balanceEthForAddress[msg.sender] = balanceEthForAddress[msg.sender].add(offerVolume.mul(currentPrice));\n                            tokenBalanceForAddress[offerAddress][tokenIndex] = tokenBalanceForAddress[offerAddress][tokenIndex].add(volumeRequired);\n                            \n                            volumeRequired = 0;\n                            \n                            emit SellOrderFulfilled(tokenIndex, volumeRequired, currentPrice, j);\n                            \n                            return volumeRequired;\n                        }\n                        \n                    }\n                    \n                }\n                \n                currentPrice = sellBook.prices[currentPrice].higherPrice;\n            }\n            return volumeRequired;\n    }\n    \n    //////////////////////////////\n    // CANCEL LIMIT ORDER LOGIC //\n    //////////////////////////////\n    function cancelOrder(string _symbolName, bool _isSellOrder, uint _priceInWei, uint _offerKey) public {\n        uint8 tokenIndex = _getSymbolIndexOrThrow(_symbolName);\n        \n        if(_isSellOrder) {\n            require(tokens[tokenIndex].sellBook.prices[_priceInWei].offers[_offerKey].who == msg.sender);\n            \n            uint tokensAmount = tokens[tokenIndex].sellBook.prices[_priceInWei].offers[_offerKey].amount;\n            \n            tokenBalanceForAddress[msg.sender][tokenIndex] = tokenBalanceForAddress[msg.sender][tokenIndex].add(tokensAmount);\n            tokens[tokenIndex].sellBook.prices[_priceInWei].offers[_offerKey].amount = 0;\n            \n            emit SellOrderCanceled(tokenIndex, _priceInWei, _offerKey);\n        }\n        \n        else {\n            require(tokens[tokenIndex].buyBook.prices[_priceInWei].offers[_offerKey].who == msg.sender); \n            \n            uint etherToReturn = tokens[tokenIndex].buyBook.prices[_priceInWei].offers[_offerKey].amount.mul(_priceInWei);\n            \n            tokens[tokenIndex].buyBook.prices[_priceInWei].offers[_offerKey].amount = 0;\n            balanceEthForAddress[msg.sender].add(etherToReturn);\n            \n            emit BuyOrderCanceled(tokenIndex, _priceInWei, _offerKey);\n        }\n        \n    }\n\n\n\n}",
  "sourcePath": "/Users/thomas/Code/Learn/ethereum_masterclass_truffle_test/contracts/Exchange.sol",
  "compiler": {
    "name": "solc",
    "version": "0.4.21+commit.dfe3193c.Emscripten.clang"
  },
  "schemaVersion": "2.0.0",
  "updatedAt": "2018-04-23T12:14:58.797Z"
}