{
  "contractName": "Ownable",
  "abi": [
    {
      "constant": true,
      "inputs": [],
      "name": "owner",
      "outputs": [
        {
          "name": "",
          "type": "address"
        }
      ],
      "payable": false,
      "stateMutability": "view",
      "type": "function"
    },
    {
      "inputs": [],
      "payable": false,
      "stateMutability": "nonpayable",
      "type": "constructor"
    }
  ],
  "bytecode": "0x6060604052341561000f57600080fd5b336000806101000a81548173ffffffffffffffffffffffffffffffffffffffff021916908373ffffffffffffffffffffffffffffffffffffffff16021790555060e78061005d6000396000f300606060405260043610603f576000357c0100000000000000000000000000000000000000000000000000000000900463ffffffff1680638da5cb5b146044575b600080fd5b3415604e57600080fd5b60546096565b604051808273ffffffffffffffffffffffffffffffffffffffff1673ffffffffffffffffffffffffffffffffffffffff16815260200191505060405180910390f35b6000809054906101000a900473ffffffffffffffffffffffffffffffffffffffff16815600a165627a7a723058200992a360ccd9619ee55b8fb16fc23dad6eafa7e94abbeb2474f85a661677269e0029",
  "source": "pragma solidity ^ 0.4.19;\n\n\ncontract Ownable {\n    address public owner;\n    function Ownable() public {\n        owner = msg.sender;\n    }\n\n    modifier onlyOwner {\n        require(msg.sender == owner);\n        _;\n    }\n    \n    \n   \n}\n\n\ncontract CREDITS is Ownable{\n    /* Public variables of the token */\n    string public name = 'CREDITS';\n    string public symbol = 'CS';\n    uint8 public decimals = 6;\n    uint256 public totalSupply = 1000000000000000;\n    uint public TotalHoldersAmount;\n    /*Freeze transfer from all accounts */\n    bool public Frozen=true;\n    bool public CanChange=true;\n    address public Admin;\n    address public AddressForReturn;\n    address[] Accounts;\n    /* This creates an array with all balances */\n    mapping(address => uint256) public balanceOf;\n    mapping(address => mapping(address => uint256)) public allowance;\n   /*Individual Freeze*/\n    mapping(address => bool) public AccountIsFrozen;\n    /*Allow transfer for ICO, Admin accounts if IsFrozen==true*/\n    mapping(address => bool) public AccountIsNotFrozen;\n   /*Allow transfer tokens only to ReturnWallet*/\n    mapping(address => bool) public AccountIsNotFrozenForReturn;\n    mapping(address => uint) public AccountIsFrozenByDate;\n    \n    mapping (address => bool) public isHolder;\n    mapping (address => bool) public isArrAccountIsFrozen;\n    mapping (address => bool) public isArrAccountIsNotFrozen;\n    mapping (address => bool) public isArrAccountIsNotFrozenForReturn;\n    mapping (address => bool) public isArrAccountIsFrozenByDate;\n    address [] public Arrholders;\n    address [] public ArrAccountIsFrozen;\n    address [] public ArrAccountIsNotFrozen;\n    address [] public ArrAccountIsNotFrozenForReturn;\n    address [] public ArrAccountIsFrozenByDate;\n   \n    \n    \n    /* This generates a public event on the blockchain that will notify clients */\n    event Transfer(address indexed from, address indexed to, uint256 value);\n    event Approval(address indexed tokenOwner, address indexed spender, uint tokens);\n    event Burn(address indexed from, uint256 value);\n    \n    modifier IsNotFrozen{\n      require(((!Frozen&&AccountIsFrozen[msg.sender]!=true)||((Frozen)&&AccountIsNotFrozen[msg.sender]==true))&&now>AccountIsFrozenByDate[msg.sender]);\n      _;\n     }\n     \n     modifier isCanChange{\n      require((msg.sender==owner||msg.sender==Admin)&&CanChange==true);\n      _;\n     }\n     \n     \n     \n     \n    /* Initializes contract with initial supply tokens to the creator of the contract */\n   \n  function CREDITS() public {\n        balanceOf[msg.sender] = totalSupply;\n        Arrholders[Arrholders.length++]=msg.sender;\n        Admin=msg.sender;\n    }\n    \n     function setAdmin(address _address) public onlyOwner{\n        require(CanChange);\n        Admin=_address;\n    }\n    \n   function setFrozen(bool _Frozen)public onlyOwner{\n      require(CanChange);\n      Frozen=_Frozen;\n    }\n    \n    function setCanChange(bool _canChange)public onlyOwner{\n      require(CanChange);\n      CanChange=_canChange;\n    }\n    \n    function setAccountIsFrozen(address _address, bool _IsFrozen)public isCanChange{\n     AccountIsFrozen[_address]=_IsFrozen;\n     if (isArrAccountIsFrozen[_address] != true) {\n        ArrAccountIsFrozen[ArrAccountIsFrozen.length++] = _address;\n        isArrAccountIsFrozen[_address] = true;\n    }\n    }\n    \n    function setAccountIsNotFrozen(address _address, bool _IsFrozen)public isCanChange{\n     AccountIsNotFrozen[_address]=_IsFrozen;\n     if (isArrAccountIsNotFrozen[_address] != true) {\n        ArrAccountIsNotFrozen[ArrAccountIsNotFrozen.length++] = _address;\n        isArrAccountIsNotFrozen[_address] = true;\n    }\n    }\n    \n    function setAccountIsNotFrozenForReturn(address _address, bool _IsFrozen)public isCanChange{\n     AccountIsNotFrozenForReturn[_address]=_IsFrozen;\n      if (isArrAccountIsNotFrozenForReturn[_address] != true) {\n        ArrAccountIsNotFrozenForReturn[ArrAccountIsNotFrozenForReturn.length++] = _address;\n        isArrAccountIsNotFrozenForReturn[_address] = true;\n    }\n    }\n    \n    function setAccountIsFrozenByDate(address _address, uint _Date)public isCanChange{\n    \n        require (!isArrAccountIsFrozenByDate[_address]);\n        AccountIsFrozenByDate[_address]=_Date;\n        ArrAccountIsFrozenByDate[ArrAccountIsFrozenByDate.length++] = _address;\n        isArrAccountIsFrozenByDate[_address] = true;\n    \n    }\n    \n    /* Send coins */\n    function transfer(address _to, uint256 _value) public  {\n        require(((!Frozen&&AccountIsFrozen[msg.sender]!=true)||((Frozen)&&AccountIsNotFrozen[msg.sender]==true)||(AccountIsNotFrozenForReturn[msg.sender]==true&&_to==AddressForReturn))&&now>AccountIsFrozenByDate[msg.sender]);\n        require(balanceOf[msg.sender] >= _value); // Check if the sender has enough\n        require (balanceOf[_to] + _value >= balanceOf[_to]); // Check for overflows\n        balanceOf[msg.sender] -= _value; // Subtract from the sender\n        balanceOf[_to] += _value; // Add the same to the recipient\n        Transfer(msg.sender, _to, _value); // Notify anyone listening that this transfer took place\n        if (isHolder[_to] != true) {\n        Arrholders[Arrholders.length++] = _to;\n        isHolder[_to] = true;\n    }}\n    \n  \n \n    /* Allow another contract to spend some tokens in your behalf */\n    function approve(address _spender, uint256 _value)public\n    returns(bool success) {\n        allowance[msg.sender][_spender] = _value;\n        Approval(msg.sender, _spender, _value);\n        return true;\n    }\n\n   \n\n    /* A contract attempts to get the coins */\n    function transferFrom(address _from, address _to, uint256 _value)public IsNotFrozen returns(bool success)  {\n        require(((!Frozen&&AccountIsFrozen[_from]!=true)||((Frozen)&&AccountIsNotFrozen[_from]==true))&&now>AccountIsFrozenByDate[_from]);\n        require (balanceOf[_from] >= _value) ; // Check if the sender has enough\n        require (balanceOf[_to] + _value >= balanceOf[_to]) ; // Check for overflows\n        require (_value <= allowance[_from][msg.sender]) ; // Check allowance\n        balanceOf[_from] -= _value; // Subtract from the sender\n        balanceOf[_to] += _value; // Add the same to the recipient\n        allowance[_from][msg.sender] -= _value;\n        Transfer(_from, _to, _value);\n        if (isHolder[_to] != true) {\n        Arrholders[Arrholders.length++] = _to;\n        isHolder[_to] = true;\n        }\n        return true;\n    }\n /* @param _value the amount of money to burn*/\n   \n    function burn(uint256 _value) public IsNotFrozen  returns (bool success) {\n        require(balanceOf[msg.sender] >= _value);   // Check if the sender has enough\n        balanceOf[msg.sender] -= _value;            // Subtract from the sender\n        totalSupply -= _value;                      // Updates totalSupply\n        Burn(msg.sender, _value);\n        return true;\n    }\n     /* Destroy tokens from other account  */\n   \n    function burnFrom(address _from, uint256 _value) public IsNotFrozen returns (bool success) {\n        require(((!Frozen&&AccountIsFrozen[_from]!=true)||((Frozen)&&AccountIsNotFrozen[_from]==true))&&now>AccountIsFrozenByDate[_from]);\n        require(balanceOf[_from] >= _value);                // Check if the targeted balance is enough\n        require(_value <= allowance[_from][msg.sender]);    // Check allowance\n        balanceOf[_from] -= _value;                         // Subtract from the targeted balance\n        allowance[_from][msg.sender] -= _value;             // Subtract from the sender's allowance\n        totalSupply -= _value;                              // Update totalSupply\n        Burn(_from, _value);\n        return true;\n    }\n        \n   \n    \n    function GetHoldersCount () public view returns (uint _HoldersCount){\n  \n         return (Arrholders.length-1);\n    }\n    \n    function GetAccountIsFrozenCount () public view returns (uint _Count){\n  \n         return (ArrAccountIsFrozen.length);\n    }\n    \n    function GetAccountIsNotFrozenForReturnCount () public view returns (uint _Count){\n  \n         return (ArrAccountIsNotFrozenForReturn.length);\n    }\n    \n    function GetAccountIsNotFrozenCount () public view returns (uint _Count){\n  \n         return (ArrAccountIsNotFrozen.length);\n    }\n    \n     function GetAccountIsFrozenByDateCount () public view returns (uint _Count){\n  \n         return (ArrAccountIsFrozenByDate.length);\n    }\n     \n     function SetAddressForReturn (address _address) public isCanChange  returns (bool success ){\n         AddressForReturn=_address;\n         return true;\n    }\n    \n    function setSymbol(string _symbol) public onlyOwner {\n        require(CanChange);\n        symbol = _symbol;\n    }\n    \n    function setName(string _name) public onlyOwner {\n        require(CanChange);\n        name = _name;\n    }\n    \n    \n    /* This unnamed function is called whenever someone tries to send ether to it */\n   function () public payable {\n         revert();\n    }\n}",
  "sourcePath": "/Users/thomas/Code/Learn/ethereum_masterclass_truffle_test/contracts/tokens/CREDITS.sol",
  "compiler": {
    "name": "solc",
    "version": "0.4.21+commit.dfe3193c.Emscripten.clang"
  },
  "schemaVersion": "2.0.0",
  "updatedAt": "2018-04-21T17:50:08.672Z"
}